:100000000C944FB10C94A2B00C9400000C9436B335
:100010000C9400000C9400000C9400000C9470B53B
:100020000C9400000C941DB30C9400000C94000080
:100030000C9400000C9400000C9400000C94000040
:100040000C9433B10C9400000C9400000C9400004C
:100050000C9400000C9400000C9400000C94000020
:100060000C9400000C9400000C9400000C94000010
:100070000C9400000C9400000C9400000C94000000
:100080000C9400000C9400000C9400000000000F81
:10009000080E0800000011111F000400010E1404D6
:1000A00004040400000A15110A0400000000000FF7
:1000B00009090F00000000090D0B0900C3D021F051
:1000C000662309F0D4D098940895F8DF09F441C06C
:1000D000E62ED52EC42EB32EA22E912E802E002DCC
:1000E000112D222D332DEADF09F43DC0842F952FE9
:1000F0008C199D09B9F072F49095809501964C2D5C
:100100005D2D883180F535952795179507950197D1
:10011000D1F708C08831E8F4B594A79497948794F0
:100120000197D1F766272EF0080D191D2A1D3B1DDA
:1001300009C0801A910AA20AB30A082D192D2A2D86
:100140003B2D332312F493D060E82FD001C018D098
:1001500016C0002D112D222D332DD6F71ED0C1F340
:1001600040E83427F5CF082D192D2A2D3B2D4C2D95
:100170005D2D6E2D33235AF77AD060E8E8CF0895CD
:100180000CD039F041585F4F342F220F3695279508
:10019000362B0895689499DF0895002329F41123DC
:1001A00019F4222309F433230895F7DF11F19F9303
:1001B0008F938EE790E0332351F03695279517956E
:1001C000079548175907B4F44F5F5F4FF4CF8095F8
:1001D0009095019622239AF0000F111F221F4817B5
:1001E00059071CF041505040F5CF00271127222716
:1001F000332708C033270FEF102F2FE7322F8F91AF
:100200009F91BEDF0895C6DF332332F0C6DF11F0C1
:1002100001E003C0002701C00FEF0895042E152E42
:10022000262E372EF0DF00230895E8944EDF089540
:1002300047E16627552726F0332312F418D060E8EB
:10024000B4DF0895AADF79F0632F6078220F331F9F
:10025000432F5FE7451B55275040269530E8232B59
:100260003327989403C0442755276627089500959F
:100270001095209530950F5F1F4F2F4F3F4F0895DA
:10028000C9019A01AB01B80197FB092E05260ED0D2
:1002900057FD04D014D00AD0001C38F45095409576
:1002A000309521953F4F4F4F5F4F0895F6F790954A
:1002B0008095709561957F4F8F4F9F4F0895A1E274
:1002C0001A2EAA1BBB1BFD010DC0AA1FBB1FEE1FD0
:1002D000FF1FA217B307E407F50720F0A21BB30B1B
:1002E000E40BF50B661F771F881F991F1A9469F797
:1002F00060957095809590959B01AC01BD01CF01F3
:100300000895A0DF81F1E62ED52EC42EB32EA22EA5
:10031000912E802E002D112D222D332D93DF19F1DA
:100320006E254C0D5D1D40385307F4F441387FEFC6
:100330005707FCF088279927AA27BB2770E2B695B4
:10034000A79597958795379527951795079520F445
:10035000880D991DAA1DBB1D7A9589F7032F3A2F89
:10036000292F182F22DF0AC00FEF102F2FE73FE7AA
:10037000FACF0027102F202F302FF5CF0895E894C3
:1003800057DF0895042E152E262E372EBADF002EA5
:10039000112E222E332E08953F932F931F930F93E8
:1003A000002D112D222D332D4DDF09F44BC0E62EEB
:1003B000D52EC42EB32EA22E912E802E0F911F91DA
:1003C0002F913F913FDF61F16E254C195D09403857
:1003D00053073CF541387FEF57077CF180E27724E3
:1003E000632E522E412E302F222711270027000F77
:1003F000111F221F331F441C551C661C771C28F03C
:10040000481859086A087B0804C0480C591C6A1C23
:100410007B1C0AF001608A9551F741505040C5DEBF
:1004200016C00FEF102F2FE73FE76623C9F3B5DEA5
:10043000B9F3342D30E83425F3CF0027102F202FC7
:10044000302FEECF0F900F900F900F90EACF0895BE
:10045000F9DEF1F05523C2F04F31A8F44731C1F075
:1004600050F44195495E05C0359527951795079538
:100470004A95D1F70DC04751000F111F221F331F9E
:100480004A95D1F705C03FE7232F132F032F03C051
:10049000662309F0ECDE0895002E112E222E332E55
:1004A000042F152F262F372FAEDE00231CF000243B
:1004B000039401C000240895CF93DF93CDB7DEB736
:1004C0002397CDBFDEBF2196B0E85B1641F4B0E0C4
:1004D0004B1629F4B0E03B1611F4B0E02B16D1F422
:1004E000F301BDE2B193B2E3B193B1E3B193B4E3ED
:1004F000B193B7E3B193B4E3B193B8E3B193B3E38A
:10050000B193B6E3B193B4E3B193B8E3B193B0E080
:10051000B1937BC0B0E0BA8300E010E020E030E0AF
:10052000201631064206530664F4BFEFBA8300E09A
:1005300010E020E030E00219130924093509180100
:100540002901F301B0E2B193B0E2B193B0E2B1930B
:10055000B0E2B193B0E2B193B0E2B193B0E2B19343
:10056000B0E2B193B0E2B193B0E2B193B0E3B19332
:10057000B0E0B1938301065F1F4F08831983B0E099
:100580005B1641F4B0E04B1629F4B0E03B1611F4D1
:10059000B0E02B1699F17F926F925F924F923F924B
:1005A0002F924AE050E060E070E08101920168DE45
:1005B0008B019C012F903F904F905F90005DE881F0
:1005C000F98100835F924F923F922F924AE050E070
:1005D00060E070E08101920153DE89019A012F9061
:1005E0003F904F905F906F907F9018012901088194
:1005F00019810150104008831983C1CF0A8100235B
:1006000021F0E881F981BDE2B0832296CDBFDEBF43
:10061000DF91CF910895042E152E262E372E05DE5C
:10062000002E112E222E332E0895F8DD1CF4002406
:10063000039401C000240895042E152E262E372E73
:10064000A9DD002E112E222E332E0895049FD001F5
:10065000159FF001249FE00DF11D069FE00DF11D97
:10066000349FF00D259FF00D169FF00D079FF00DA4
:100670003327149FB00DE11DF31F059FB00DE11D41
:10068000F31F8D019F01089521BE0895CF93DF933D
:10069000CDB7DEB72497CDBFDEBF2196152D110F44
:1006A000B7E0042D0695BA95E9F7010F0F57202FF3
:1006B00030E007FD3FEF00E010E020173107DCF4E9
:1006C00040E050E060E070E081019201E5DE00284A
:1006D00000E009F00FEF002331F0B0E0B883B983F8
:1006E000BA83BB8307C0B0E0B883B983B0E8BA83EC
:1006F000BFE3BB832AC008E1021728F428823982AD
:100700004A825B8222C081019201A2DE38DE088328
:1007100019832A833B83A101B201088119812A81AF
:100720003B8183DF002800E009F00FEF002369F030
:10073000088119812A813B8140E050E060E87FE335
:100740006ADF088319832A833B83088119812A8100
:100750003B812396CDBFDEBFDF91CF910895042E5C
:10076000152E262E372E18DE002E112E222E332E79
:100770000895B1E14B1619F43BBC2ABC26C0B2E186
:100780004B1619F439BC28BC20C0B3E14B1629F430
:10079000309279002092780018C0B4E14B1629F409
:1007A000309287002092860010C0B5E14B1629F4E4
:1007B000309285002092840008C0B6E14B1629F4DF
:1007C000309283002092820000C00895CF93DF937F
:1007D000CDB7DEB7A197CDBFDEBF2196B0E0BE8F0B
:1007E0008101920135DE088319832A833B835F925E
:1007F0004F923F922F9240E050E060E070E0810124
:10080000920113DF002800E009F00FEF2F903F90D6
:100810004F905F90002311F0BFEFBE8F8E010A5FF3
:100820001F4F7F926F925F924F923F922F923801AB
:10083000288039804A805B803FDE2F903F904F9028
:100840005F906F907F90088119812A813B8197DDAD
:100850005F924F923F922F92A801B90181019201BC
:10086000EBDE40E050E563EC77E48CDD2F903F90C9
:100870004F905F90EDDD088319832A833B8340E02E
:1008800050E060E070E0041715072607370784F48E
:100890000880198000E010E0001911090A801B800F
:1008A00020E030E020093109088319832A833B8343
:1008B0008E010E5E1F4F7F926F925F924F923F921A
:1008C0002F923801288039804A805B80F5DD2F9097
:1008D0003F904F905F906F907F9040E050E0B0E08D
:1008E000BC83BD83F301B0E2B193B0E2B193B0E257
:1008F000B193B0E2B193B0E2B193B0E2B193B0E2A0
:10090000B193B0E2B193B0E2B193B0E2B193B0E38E
:10091000B193B0E0B1935F934F938101920198DD61
:10092000303029F4203019F4103009F40030B0E0F0
:1009300009F4BFEF0B2F08A340E050E060E070E047
:100940008101920172DE002800E009F00FEF4F9163
:100950005F9118A10123002341F0F301BDE2B083B0
:1009600011E020E0412F522F00C02E81203281F46F
:100970000C811D8198012F5F3F4F2C833D838E0199
:100980000A5F1F4FF901E00FF11F0081202FEECF0A
:10099000022F0030D1F0FA01E60DF71D00830C8123
:1009A0001D8198012F5F3F4F2C833D838A010F5F8C
:1009B0001F4FB8018E010A5F1F4FF901E00FF11FB1
:1009C0000081202F022FAB01E4CF0E8D003010E00C
:1009D00009F41FEF503009F4403000E009F40FEF44
:1009E000012351F0FA01E60DF71DB0E3B0838A014F
:1009F0000F5F1F4F980101C09A01303009F4213078
:100A000010E009F41FEF0E8D012359F0F901E60DF6
:100A1000F71DB0E3B08389010F5F1F4FA8019A0152
:100A200000C0F901E60DF71DBEE2B08389010F5F3A
:100A30001F4FA801B6E0BC83B0E0BD83288D2030F5
:100A4000F9F0203219F420E3022F01C0022FFA013D
:100A5000E60DF71D00830C811D8198012F5F3F4F2C
:100A60002C833D838A010F5F1F4FB8018E010E5EFC
:100A70001F4FF901E00FF11F0081AB01202FDFCFE5
:100A8000FA01E60DF71DB0E0B083A096CDBFDEBF42
:100A9000DF91CF9108959801249F8001259F100D2B
:100AA000349F100D0895B0913400BD7FB093340091
:100AB0000E940B720E940B72B0913400BE7FB09303
:100AC00034000E940B720E940B72B0913400B2602D
:100AD000B09334000E940B720E940B72B0913400EC
:100AE000B160B09334000895E32DF42DB0E2B193DA
:100AF000B0E2B193B0E3B193B0E0B193032D142D04
:100B00000E5F1F4F9801B0E02B1681F04AE0022DD6
:100B10000ED0092F005DF90100834AE0022D07D0B5
:100B2000202E8901015010409801EDCF089599279A
:100B300079E004C0991F941708F0941B001F7A9560
:100B4000C9F700950895B0913400B260B0933400B5
:100B50000E940B720E940B72B0913400BE7FB09362
:100B60003400B0910001BF7EB0930001B09133001A
:100B7000B0FD06C0B0910001B4FF01C001C0F6CFC6
:100B80000E940B720E940B720E940B720E940B72E9
:100B90000E940B720E940B720E940B720E940B72D9
:100BA000B0913400BD7FB09334000E940B720E945C
:100BB0000B720895CF93DF93CDB7DEB72397CDBFE8
:100BC000DEBF2196B1E0B883B0E8B983B0E0BA8364
:100BD00009811A81103009F4003009F443C00E94E1
:100BE0000B720E940B720E940B720E940B72B091EA
:100BF0003400B160B09334000E940B720E940B72FB
:100C000009811A8102211070103009F4003031F08E
:100C1000B0913400BD7FB093340005C0B091340072
:100C2000B260B09334000E940B720E940B72B091BC
:100C30003400BE7FB0933400B0910001BF7EB0930A
:100C40000001B0913300B0FD06C0B0910001B4FFC7
:100C500001C001C0F6CF09811A8116950795098355
:100C60001A83B6CFB0E0B8830E940B720E940B7259
:100C7000B0913400B160B09334000E940B720E94B6
:100C80000B72B0913400BD7FB09334000E940B72A0
:100C90000E940B720E940B720E940B72B091340082
:100CA000BE7FB0933400B0910001BF7EB0930001CD
:100CB000B0913300B0FD06C0B0910001B4FF01C097
:100CC00001C0F6CFB0E0B8830E940B720E940B7295
:100CD000B0913300B1FF03C00881016008830E9416
:100CE0000B720E940B720E940B720E940B720E9488
:100CF0000B720E940B720E940B720E940B720E9478
:100D00000B720E940B720E940B720E940B720E9467
:100D10000B720E940B720E940B720E940B72B091B8
:100D20003400B160B0933400B0913400B260B0933D
:100D3000340008812296CDBFDEBFDF91CF910895A8
:100D4000B0913500B77FB0933500B0913500BB7FCF
:100D5000B0933500B0913500BF77B0933500B091B6
:100D60003500BF7BB0933500B0913500BF7DB093A7
:100D70003500B0913500BF7EB0933500B09134009E
:100D8000B860B0933400B0913400B460B0933400D4
:100D9000B0913400B061B0933400B0913400B062CF
:100DA000B0933400B0913400B064B0933400B0918B
:100DB0003400B068B09334000E94B46E0E94B46EE8
:100DC0000E94B46EB0913500B062B0933500B0911E
:100DD0003500B061B0933500B0913500B860B09384
:100DE00035000E940B72B0913500B77FB09335008B
:100DF0000E94B46EB0913500B860B09335000E9487
:100E00000B72B0913500B77FB09335000E94B46E7D
:100E1000B0913500B860B09335000E940B72B0916C
:100E20003500B77FB09335000E94B46EB0913500A5
:100E3000BF7EB0933500B0913500B860B0933500F7
:100E40000E940B72B0913500B77FB09335000E94BD
:100E5000B46EB0913500B860B09335000E940B724B
:100E6000B0913500B77FB0933500B0913500BF7DAC
:100E7000B0933500B0913500B068B0933500B091B3
:100E80003500B860B09335000E940B72B091350008
:100E9000B77FB09335000E94B46EB0913500BF7734
:100EA000B0933500B0913500B061B0933500B0918A
:100EB0003500B860B09335000E940B72B0913500D8
:100EC000B77FB0933500B0913500BF7EB093350049
:100ED000B0913500B860B09335000E940B72B091AC
:100EE0003500B77FB09335000E94B46EB0913500E5
:100EF000B860B09335000E940B72B0913500B77F97
:100F0000B0933500B0913500B061B0933500B09129
:100F10003500B860B09335000E940B72B091350077
:100F2000B77FB09335000E94B46EB0913500BF7E9C
:100F3000B0933500B0913500B860B09335000E9491
:100F40000B72B0913500B77FB0933500B09135008A
:100F5000B068B0933500B0913500B064B0933500FF
:100F6000B0913500B062B0933500B0913500B061FA
:100F7000B0933500B0913500B860B09335000E9451
:100F80000B72B0913500B77FB09335000E94B46EFC
:100F9000B0910001B064B09300010895CF93DF9346
:100FA000CDB7DEB72397CDBFDEBF2196B0E0B883C3
:100FB000B0E8B983B0E0BA8309811A81103009F42E
:100FC000003009F439C00E940B720E940B72B0917C
:100FD0003400BD7FB09334000E940B720E940B72EC
:100FE000B0913400BE7FB0933400B0910001BF7E59
:100FF000B0930001B0913300B0FD06C0B091000184
:10100000B4FF01C001C0F6CFB0913300B1FF04C0FE
:1010100018810981012B08830E940B720E940B72B8
:10102000B0913400B160B093340009811A811695F3
:10103000079509831A83C0CFB0913400BD7FB09368
:1010400034000E940B720E940B72B0E03B1611F448
:10105000B0E02B1629F0B0913400B260B0933400A8
:101060000E940B720E940B72B0913400BE7FB0934D
:101070003400B0910001BF7EB0930001B091330005
:10108000B0FD06C0B0910001B4FF01C001C0F6CFB1
:101090000E940B720E940B72B0913400B160B09349
:1010A00034000E940B720E940B72B0913400B26047
:1010B000B093340008812296CDBFDEBFDF91CF917F
:1010C0000895CF93DF93CDB7DEB72697CDBFDEBFB0
:1010D00021962F923F924F926F927F92022D10E0B5
:1010E000212F312F432D542D60E047FC6FEF762FD9
:1010F000ADDA45D95F924F923F922F9240E050E097
:1011000068EC72E42CDB18012901C0DA0A831B8326
:101110002C833D83B0E46B2EB7E07B2E18012901B0
:1011200055DB0E9486730A811B812C813D8190D9F9
:1011300008831983BFEA4B2EBDE05B2E18010E9485
:10114000C087B0E44B2EB7E05B2EB1E03B2EB1E0A0
:101150002B2E0E94D1A0BFEA4B2EBDE05B2EB6E045
:101160003B2EB2E02B2E0E94D1A02F902F92BFEAEF
:101170004B2EBDE05B2EB0E03B2E0E94C087BFEA45
:101180004B2EBDE05B2EB1E03B2EB2E02B2E0E9439
:10119000D1A02F903F904F905F90B1E05B1631F45B
:1011A000B1E14B2E28803980E4DA36C0B2E05B161C
:1011B00031F4B2E14B2E28803980DBDA2DC0B3E068
:1011C0005B1631F4B2E04B2E28803980D2DA24C08D
:1011D000B4E05B16A9F4B0E02B1649F4088019803E
:1011E000032D142D0019110918014EDA08C00880CA
:1011F0001980032D142D00191109180145DA0CC0AE
:10120000B5E05B1609F408C0B6E05B1609F404C04B
:10121000B7E05B1609F400C07F906F904F903F904D
:101220002F902596CDBFDEBFDF91CF9108950FB6E9
:10123000BCB3B1FF02C00000FBCFF8943FBA2EBA96
:101240004DBABCB3B460BCBBBCB3B260BCBB0FBED8
:10125000089505E80A95F1F700000895CF93DF930C
:10126000CDB7DEB76B97CDBFDEBF21965F926F9291
:10127000B0910001B160B0930001B0910001BD7F59
:10128000B0930001B0910001B0FF0C949211B1E055
:101290002B1609F0EDC0FE01B0E5B193BCE6B193A9
:1012A000B3E7B193B0E2B193B3E4B193B8E6B193CD
:1012B000BFE6B193BFE6B193B3E7B193B5E6B1939F
:1012C000B0E2B193B0E5B193B2E7B193BFE6B193A9
:1012D000B7E6B193B2E7B193B1E6B193BDE6B1938E
:1012E000B0E2B193BEE4B193B5E7B193BDE6B1937B
:1012F000B2E6B193B5E6B193B2E7B193BAE3B19375
:10130000B0E0B1938E014F923F922F922801B1E04D
:101310003B2EB1E02B2E0E94D1A0FE01B0E5B1938F
:10132000B2E7B193BAE3B193B1E3B193B0E2B19351
:10133000B2E3B193B0E2B193B3E3B193B0E2B1934E
:10134000B4E3B193B0E2B193B5E3B193B0E2B1933A
:10135000B6E3B193B0E2B193B7E3B193B0E0B19328
:101360008E012801B1E03B2EB2E02B2E0E94D1A0CD
:1013700025E01FE002EF0A95F1F71A95E1F72A95AB
:10138000D1F7FE01B0E5B193BCE6B193B3E7B193F9
:10139000B0E2B193B3E4B193B8E6B193BFE6B193D1
:1013A000BFE6B193B3E7B193B5E6B193B0E2B193C1
:1013B000B0E5B193B2E7B193BFE6B193B7E6B193AD
:1013C000B2E7B193B1E6B193BDE6B193B0E2B193A8
:1013D000BEE4B193B5E7B193BDE6B193B2E6B19384
:1013E000B5E6B193B2E7B193BAE3B193B0E0B1938C
:1013F0008E012801B1E03B2EB1E02B2E0E94D1A03E
:10140000FE01B4E4B193B9E7B193BAE3B193B0E2AA
:10141000B193B0E2B193B2E3B193B0E2B193B3E36D
:10142000B193B0E2B193B4E3B193B0E2B193B5E359
:10143000B193B0E2B193B6E3B193B0E2B193B7E345
:10144000B193B0E0B1938E012801B1E03B2EB2E040
:101450002B2E0E94D1A02F903F904F9025E01FE0AF
:1014600002EF0A95F1F71A95E1F72A95D1F7A6C58B
:10147000B2E02B1609F0EDC0FE01B0E5B193BCE679
:10148000B193B3E7B193B0E2B193B3E4B193B8E6EB
:10149000B193BFE6B193BFE6B193B3E7B193B5E6BD
:1014A000B193B0E2B193B0E5B193B2E7B193BFE6C7
:1014B000B193B7E6B193B2E7B193B1E6B193BDE6AC
:1014C000B193B0E2B193BEE4B193B5E7B193BDE699
:1014D000B193B2E6B193B5E6B193B2E7B193BAE393
:1014E000B193B0E0B1938E014F923F922F922801B9
:1014F000B1E03B2EB1E02B2E0E94D1A0FE01B0E561
:10150000B193B2E7B193BAE3B193B1E3B193B0E26F
:10151000B193B2E3B193B0E2B193B3E3B193B0E26C
:10152000B193B4E3B193B0E2B193B5E3B193B0E258
:10153000B193B6E3B193B0E2B193B7E3B193B0E046
:10154000B1938E012801B1E03B2EB2E02B2E0E9418
:10155000D1A025E01FE002EF0A95F1F71A95E1F717
:101560002A95D1F7FE01B0E5B193BCE6B193B3E79C
:10157000B193B0E2B193B3E4B193B8E6B193BFE6EF
:10158000B193BFE6B193B3E7B193B5E6B193B0E2DF
:10159000B193B0E5B193B2E7B193BFE6B193B7E6CB
:1015A000B193B2E7B193B1E6B193BDE6B193B0E2C6
:1015B000B193BEE4B193B5E7B193BDE6B193B2E6A2
:1015C000B193B5E6B193B2E7B193BAE3B193B0E0AA
:1015D000B1938E012801B1E03B2EB1E02B2E0E9489
:1015E000D1A0FE01B0E5B193B2E7B193BAE3B193F4
:1015F000B1E3B193B0E2B193B0E2B193B0E2B19391
:10160000B3E3B193B0E2B193B4E3B193B0E2B19379
:10161000B5E3B193B0E2B193B6E3B193B0E2B19365
:10162000B7E3B193B0E0B1938E012801B1E03B2E56
:10163000B2E02B2E0E94D1A02F903F904F9025E03A
:101640001FE002EF0A95F1F71A95E1F72A95D1F715
:10165000B5C4B3E02B1609F0EDC0FE01B0E5B193BF
:10166000BCE6B193B3E7B193B0E2B193B3E4B19305
:10167000B8E6B193BFE6B193BFE6B193B3E7B193D8
:10168000B5E6B193B0E2B193B0E5B193B2E7B193EF
:10169000BFE6B193B7E6B193B2E7B193B1E6B193C8
:1016A000BDE6B193B0E2B193BEE4B193B5E7B193B7
:1016B000BDE6B193B2E6B193B5E6B193B2E7B193AB
:1016C000BAE3B193B0E0B1938E014F923F922F9263
:1016D0002801B1E03B2EB1E02B2E0E94D1A0FE01EB
:1016E000B0E5B193B2E7B193BAE3B193B1E3B1938B
:1016F000B0E2B193B2E3B193B0E2B193B3E3B1938B
:10170000B0E2B193B4E3B193B0E2B193B5E3B19376
:10171000B0E2B193B6E3B193B0E2B193B7E3B19362
:10172000B0E0B1938E012801B1E03B2EB2E02B2E48
:101730000E94D1A025E01FE002EF0A95F1F71A956B
:10174000E1F72A95D1F7FE01B0E5B193BCE6B1937C
:10175000B3E7B193B0E2B193B3E4B193B8E6B19318
:10176000BFE6B193BFE6B193B3E7B193B5E6B193EA
:10177000B0E2B193B0E5B193B2E7B193BFE6B193F4
:10178000B7E6B193B2E7B193B1E6B193BDE6B193D9
:10179000B0E2B193BEE4B193B5E7B193BDE6B193C6
:1017A000B2E6B193B5E6B193B2E7B193BAE3B193C0
:1017B000B0E0B1938E012801B1E03B2EB1E02B2EB9
:1017C0000E94D1A0FE01B0E5B193B2E7B193BAE3B4
:1017D000B193B1E3B193B0E2B193B2E3B193B0E2AC
:1017E000B193B0E2B193B0E2B193B4E3B193B0E29C
:1017F000B193B5E3B193B0E2B193B6E3B193B0E284
:10180000B193B7E3B193B0E0B1938E012801B1E099
:101810003B2EB2E02B2E0E94D1A02F903F904F90F4
:1018200025E01FE002EF0A95F1F71A95E1F72A95F6
:10183000D1F7C4C3B4E02B1609F0EDC0FE01B0E54A
:10184000B193BCE6B193B3E7B193B0E2B193B3E423
:10185000B193B8E6B193BFE6B193BFE6B193B3E7F6
:10186000B193B5E6B193B0E2B193B0E5B193B2E70D
:10187000B193BFE6B193B7E6B193B2E7B193B1E6E6
:10188000B193BDE6B193B0E2B193BEE4B193B5E7D5
:10189000B193BDE6B193B2E6B193B5E6B193B2E7C9
:1018A000B193BAE3B193B0E0B1938E014F923F92FE
:1018B0002F922801B1E03B2EB1E02B2E0E94D1A047
:1018C000FE01B0E5B193B2E7B193BAE3B193B1E3EE
:1018D000B193B0E2B193B2E3B193B0E2B193B3E3A9
:1018E000B193B0E2B193B4E3B193B0E2B193B5E395
:1018F000B193B0E2B193B6E3B193B0E2B193B7E381
:10190000B193B0E0B1938E012801B1E03B2EB2E07B
:101910002B2E0E94D1A025E01FE002EF0A95F1F7DF
:101920001A95E1F72A95D1F7FE01B0E5B193BCE62F
:10193000B193B3E7B193B0E2B193B3E4B193B8E636
:10194000B193BFE6B193BFE6B193B3E7B193B5E608
:10195000B193B0E2B193B0E5B193B2E7B193BFE612
:10196000B193B7E6B193B2E7B193B1E6B193BDE6F7
:10197000B193B0E2B193BEE4B193B5E7B193BDE6E4
:10198000B193B2E6B193B5E6B193B2E7B193BAE3DE
:10199000B193B0E0B1938E012801B1E03B2EB1E0EC
:1019A0002B2E0E94D1A0FE01B0E5B193B2E7B19316
:1019B000BAE3B193B1E3B193B0E2B193B2E3B193BF
:1019C000B0E2B193B3E3B193B0E2B193B0E2B193BB
:1019D000B0E2B193B5E3B193B0E2B193B6E3B193A2
:1019E000B0E2B193B7E3B193B0E0B1938E012801B7
:1019F000B1E03B2EB2E02B2E0E94D1A02F903F9061
:101A00004F9025E01FE002EF0A95F1F71A95E1F7F4
:101A10002A95D1F7D3C2B5E02B1609F0EDC0FE012F
:101A2000B0E5B193BCE6B193B3E7B193B0E2B19343
:101A3000B3E4B193B8E6B193BFE6B193BFE6B19317
:101A4000B3E7B193B5E6B193B0E2B193B0E5B1932A
:101A5000B2E7B193BFE6B193B7E6B193B2E7B19302
:101A6000B1E6B193BDE6B193B0E2B193BEE4B193F8
:101A7000B5E7B193BDE6B193B2E6B193B5E6B193E4
:101A8000B2E7B193BAE3B193B0E0B1938E014F9254
:101A90003F922F922801B1E03B2EB1E02B2E0E9405
:101AA000D1A0FE01B0E5B193B2E7B193BAE3B1932F
:101AB000B1E3B193B0E2B193B2E3B193B0E2B193C9
:101AC000B3E3B193B0E2B193B4E3B193B0E2B193B5
:101AD000B5E3B193B0E2B193B6E3B193B0E2B193A1
:101AE000B7E3B193B0E0B1938E012801B1E03B2E92
:101AF000B2E02B2E0E94D1A025E01FE002EF0A9554
:101B0000F1F71A95E1F72A95D1F7FE01B0E5B19307
:101B1000BCE6B193B3E7B193B0E2B193B3E4B19350
:101B2000B8E6B193BFE6B193BFE6B193B3E7B19323
:101B3000B5E6B193B0E2B193B0E5B193B2E7B1933A
:101B4000BFE6B193B7E6B193B2E7B193B1E6B19313
:101B5000BDE6B193B0E2B193BEE4B193B5E7B19302
:101B6000BDE6B193B2E6B193B5E6B193B2E7B193F6
:101B7000BAE3B193B0E0B1938E012801B1E03B2EFE
:101B8000B1E02B2E0E94D1A0FE01B0E5B193B2E7E7
:101B9000B193BAE3B193B1E3B193B0E2B193B2E3DD
:101BA000B193B0E2B193B3E3B193B0E2B193B4E3D4
:101BB000B193B0E2B193B0E2B193B0E2B193B6E3C6
:101BC000B193B0E2B193B7E3B193B0E0B1938E01BA
:101BD0002801B1E03B2EB2E02B2E0E94D1A02F9025
:101BE0003F904F9025E01FE002EF0A95F1F71A951C
:101BF000E1F72A95D1F7E2C1B6E02B1609F0EDC066
:101C0000FE01B0E5B193BCE6B193B3E7B193B0E2A6
:101C1000B193B3E4B193B8E6B193BFE6B193BFE635
:101C2000B193B3E7B193B5E6B193B0E2B193B0E548
:101C3000B193B2E7B193BFE6B193B7E6B193B2E720
:101C4000B193B1E6B193BDE6B193B0E2B193BEE416
:101C5000B193B5E7B193BDE6B193B2E6B193B5E602
:101C6000B193B2E7B193BAE3B193B0E0B1938E010F
:101C70004F923F922F922801B1E03B2EB1E02B2EE4
:101C80000E94D1A0FE01B0E5B193B2E7B193BAE3EF
:101C9000B193B1E3B193B0E2B193B2E3B193B0E2E7
:101CA000B193B3E3B193B0E2B193B4E3B193B0E2D3
:101CB000B193B5E3B193B0E2B193B6E3B193B0E2BF
:101CC000B193B7E3B193B0E0B1938E012801B1E0D5
:101CD0003B2EB2E02B2E0E94D1A025E01FE002EFA8
:101CE0000A95F1F71A95E1F72A95D1F7FE01B0E5CB
:101CF000B193BCE6B193B3E7B193B0E2B193B3E46F
:101D0000B193B8E6B193BFE6B193BFE6B193B3E741
:101D1000B193B5E6B193B0E2B193B0E5B193B2E758
:101D2000B193BFE6B193B7E6B193B2E7B193B1E631
:101D3000B193BDE6B193B0E2B193BEE4B193B5E720
:101D4000B193BDE6B193B2E6B193B5E6B193B2E714
:101D5000B193BAE3B193B0E0B1938E012801B1E041
:101D60003B2EB1E02B2E0E94D1A0FE01B0E5B19335
:101D7000B2E7B193BAE3B193B1E3B193B0E2B193F7
:101D8000B2E3B193B0E2B193B3E3B193B0E2B193F4
:101D9000B4E3B193B0E2B193B5E3B193B0E2B193E0
:101DA000B0E2B193B0E2B193B7E3B193B0E0B193D5
:101DB0008E012801B1E03B2EB2E02B2E0E94D1A073
:101DC0002F903F904F9025E01FE002EF0A95F1F72A
:101DD0001A95E1F72A95D1F7F1C0B7E02B1609F073
:101DE000EDC0FE01B0E5B193BCE6B193B3E7B193AA
:101DF000B0E2B193B3E4B193B8E6B193BFE6B19367
:101E0000BFE6B193B3E7B193B5E6B193B0E2B19356
:101E1000B0E5B193B2E7B193BFE6B193B7E6B19342
:101E2000B2E7B193B1E6B193BDE6B193B0E2B1933D
:101E3000BEE4B193B5E7B193BDE6B193B2E6B19319
:101E4000B5E6B193B2E7B193BAE3B193B0E0B19321
:101E50008E014F923F922F922801B1E03B2EB1E0CC
:101E60002B2E0E94D1A0FE01B0E5B193B2E7B19351
:101E7000BAE3B193B1E3B193B0E2B193B2E3B193FA
:101E8000B0E2B193B3E3B193B0E2B193B4E3B193F1
:101E9000B0E2B193B5E3B193B0E2B193B6E3B193DD
:101EA000B0E2B193B7E3B193B0E0B1938E012801F2
:101EB000B1E03B2EB2E02B2E0E94D1A025E01FE026
:101EC00002EF0A95F1F71A95E1F72A95D1F7FE018D
:101ED000B0E5B193BCE6B193B3E7B193B0E2B1938F
:101EE000B3E4B193B8E6B193BFE6B193BFE6B19363
:101EF000B3E7B193B5E6B193B0E2B193B0E5B19376
:101F0000B2E7B193BFE6B193B7E6B193B2E7B1934D
:101F1000B1E6B193BDE6B193B0E2B193BEE4B19343
:101F2000B5E7B193BDE6B193B2E6B193B5E6B1932F
:101F3000B2E7B193BAE3B193B0E0B1938E01280157
:101F4000B1E03B2EB1E02B2E0E94D1A0FE01B0E506
:101F5000B193B2E7B193BAE3B193B1E3B193B0E215
:101F6000B193B2E3B193B0E2B193B3E3B193B0E212
:101F7000B193B4E3B193B0E2B193B5E3B193B0E2FE
:101F8000B193B6E3B193B0E2B193B0E2B193B0E0F4
:101F9000B1938E012801B1E03B2EB2E02B2E0E94BE
:101FA000D1A02F903F904F9025E01FE002EF0A95BF
:101FB000F1F71A95E1F72A95D1F700C04F923F92B9
:101FC0002F9266245524B5E04B2EB2E32B2EB0E0C1
:101FD0003B2E0E9470992F903F904F90002329F044
:101FE000B0910001B062B09300014F923F922F92E6
:101FF000B1E06B2E5524B5E04B2EB0E32B2EB0E0B4
:102000003B2E0E9470992F903F904F9000900001BE
:10201000112705FC1395012339F0231411F4242C06
:1020200003C0022D0F5F202EB0910001B062B0936B
:1020300000014F923F922F9266245524B4E04B2E1C
:10204000B2E32B2EB0E03B2E0E9470992F903F9070
:102050004F90002329F0B0910001B062B0930001CD
:102060004F923F922F92B1E06B2E5524B4E04B2E4D
:10207000B0E32B2EB0E03B2E0E9470992F903F9042
:102080004F9000900001112705FC1395012339F0B2
:10209000241411F4232C03C0022D0150202E209271
:1020A000890D4F923F922F9266245524B2E04B2E19
:1020B000B0E32B2EB0E03B2E0E9470992F903F9002
:1020C0004F90003029F0B0910001B260B093000150
:1020D0004F923F922F92B1E06B2E5524B2E04B2EDF
:1020E000B0E32B2EB0E03B2E0E9470992F903F90D2
:1020F0004F9000900001112701FC1395012309F472
:102100006BC0B0910001BD7FB0930001B0910001A0
:10211000BE7FB09300010091780D102F1F5F1093C8
:10212000780D00912607101719F4B1E0B093780DDF
:102130004F923F922F920E948673FE01B4E4B193B6
:10214000B1E6B193B9E7B193B0E2B193B0E0B19326
:102150008E012801B1E03B2EB1E02B2E0E94D1A0D0
:102160002F902F92BFEA4B2EBDE05B2EB0E03B2EAE
:102170000E94C087BFEA4B2EBDE05B2EB6E03B2E2F
:10218000B1E02B2E0E94D1A0FE01B3E7B193B5E6DA
:10219000B193BCE6B193B5E6B193B3E6B193B4E7BE
:1021A000B193B5E6B193B4E6B193B0E0B1938E01CB
:1021B0002801B1E03B2EB2E02B2E0E94D1A02F903F
:1021C0003F904F9025E11BE40FEB0A95F1F71A952C
:1021D000E1F72A95D1F700004F923F922F926624A3
:1021E0005524B6E04B2EB0E32B2EB0E03B2E0E94E0
:1021F00070992F903F904F90003029F0B0910001DE
:10220000B062B093000110900001009000014E7F79
:1022100010FC05FE01C041604F923F922F92B1E049
:102220006B2E5524B6E04B2EB0E32B2EB0E03B2EA8
:102230000E9470992F903F904F90112740FD139569
:10224000012309F46BC0B0910001BE7FB09300017F
:10225000B0910001BF7DB09300010091780D102F67
:102260001F5F1093780D00912607101719F4B1E045
:10227000B093780D4F923F922F920E948673FE0189
:10228000B4E4B193B1E6B193B9E7B193B0E2B193DD
:10229000B0E0B1938E012801B1E03B2EB1E02B2ECE
:1022A0000E94D1A02F902F92BFEA4B2EBDE05B2E53
:1022B000B0E03B2E0E94C087BFEA4B2EBDE05B2EF4
:1022C000B6E03B2EB1E02B2E0E94D1A0FE01B3E779
:1022D000B193B5E6B193BCE6B193B5E6B193B3E67D
:1022E000B193B4E7B193B5E6B193B4E6B193B0E07E
:1022F000B1938E012801B1E03B2EB2E02B2E0E945B
:10230000D1A02F903F904F9025E11BE40FEB0A9551
:10231000F1F71A95E1F72A95D1F700002092890D7F
:102320000C9442096F905F906A96CDBFDEBFDF913B
:10233000CF910895CF93DF93CDB7DEB76197CDBF2F
:10234000DEBF21966F92B0910001B160B0930001A1
:10235000B0910001BD7FB0930001B0910001B0FFCA
:102360004AC3B1E03B1609F071C0FE01BCE3B19372
:10237000B0E2B193B3E5B193B1E6B193B6E7B193EF
:10238000B5E6B193BFE2B193BEE4B193BFE6B193BA
:10239000B0E2B193B3E5B193B1E6B193B6E7B193CF
:1023A000B5E6B193B0E2B193BEE3B193B0E0B193BF
:1023B0008E015F924F923F922F922801B1E03B2E07
:1023C000B1E02B2E0E94D1A021E11CE30CEC0A9578
:1023D000F1F71A95E1F72A95D1F7FE01BCE3B19325
:1023E000B0E2B193B0E2B193B0E2B193B0E2B19395
:1023F000B0E2B193BFE2B193BEE4B193BFE6B19353
:10240000B0E2B193B3E5B193B1E6B193B6E7B1935E
:10241000B5E6B193B0E2B193BEE3B193B0E0B1934E
:102420008E012801B1E03B2EB1E02B2E0E94D1A0FD
:102430002F903F904F905F9021E11CE30CEC0A95A8
:10244000F1F71A95E1F72A95D1F770C0FE01BCE3C8
:10245000B193B0E2B193B3E5B193B1E6B193B6E70E
:10246000B193B5E6B193BFE2B193BEE4B193BFE6D9
:10247000B193B0E2B193B3E5B193B1E6B193B6E7EE
:10248000B193B5E6B193B0E2B193BEE3B193B0E0DE
:10249000B1938E015F924F923F922F922801B1E04B
:1024A0003B2EB1E02B2E0E94D1A021E11CE30CECCD
:1024B0000A95F1F71A95E1F72A95D1F7FE01BCE3E9
:1024C000B193B0E2B193B3E5B193B1E6B193B6E79E
:1024D000B193B5E6B193BFE2B193B0E2B193B0E28C
:1024E000B193B0E2B193B0E2B193B0E2B193B0E294
:1024F000B193B0E2B193B0E2B193BEE3B193B0E077
:10250000B1938E012801B1E03B2EB1E02B2E0E9449
:10251000D1A02F903F904F905F9021E11CE30CECF5
:102520000A95F1F71A95E1F72A95D1F75F924F9244
:102530003F922F9266245524B5E04B2EB2E32B2E0A
:10254000B0E03B2E0E9470992F903F904F905F908B
:10255000002329F0B0910001B062B09300015F92B6
:102560004F923F922F92B1E06B2E5524B5E04B2E47
:10257000B0E32B2EB0E03B2E0E9470992F903F903D
:102580004F905F9000900001112705FC13950123E7
:1025900039F0341411F4352C03C0032D0F5F302EA5
:1025A000B0910001B062B09300015F924F923F92F0
:1025B0002F9266245524B4E04B2EB2E32B2EB0E0CC
:1025C0003B2E0E9470992F903F904F905F90002378
:1025D00029F0B0910001B062B09300015F924F9278
:1025E0003F922F92B1E06B2E5524B4E04B2EB0E316
:1025F0002B2EB0E03B2E0E9470992F903F904F9071
:102600005F9000900001112705FC1395012339F01C
:10261000351411F4342C03C0032D0150302E3092A8
:10262000890D5F924F923F922F9266245524B2E01B
:102630004B2EB0E32B2EB0E03B2E0E9470992F90D2
:102640003F904F905F90003029F0B0910001B26050
:10265000B09300015F924F923F922F92B1E06B2EA8
:102660005524B2E04B2EB0E32B2EB0E03B2E0E945F
:1026700070992F903F904F905F900090000111272C
:1026800001FC1395012309F4BCC0B0910001BD7F8A
:10269000B0930001B0910001BE7FB09300010091A2
:1026A000780D102F1F5F1093780D009126071017DB
:1026B00019F4B1E0B093780D5F924F923F922F9250
:1026C0000E9486732F903F904F905F90B1E03B1631
:1026D00009F049C0FE01B3E5B193B1E6B193B6E7A5
:1026E000B193B5E6B193B0E2B193B9E6B193B3E774
:1026F000B193B0E2B193B0E0B1938E015F924F928B
:102700003F922F922801B1E03B2EB1E02B2E0E9488
:10271000D1A0FE01B3E7B193B5E6B193BCE6B193A6
:10272000B5E6B193B3E6B193B4E7B193B5E6B1932F
:10273000B4E6B193B0E0B1938E012801B1E03B2E35
:10274000B2E02B2E0E94D1A02F903F904F905F902F
:1027500025E11BE40FEB0A95F1F71A95E1F72A95AD
:10276000D1F700004EC0FE01BEE4B193BFE6B193C5
:10277000B0E2B193B3E5B193B1E6B193B6E7B193EB
:10278000B5E6B193B0E2B193B9E6B193B3E7B193D3
:10279000B0E2B193B0E0B1938E015F924F923F925D
:1027A0002F922801B1E03B2EB1E02B2E0E94D1A048
:1027B000FE01B3E7B193B5E6B193BCE6B193B5E6DC
:1027C000B193B3E6B193B4E7B193B5E6B193B4E690
:1027D000B193B0E0B1938E012801B1E03B2EB2E09D
:1027E0002B2E0E94D1A02F903F904F905F9025E11B
:1027F0001BE40FEB0A95F1F71A95E1F72A95D1F74B
:1028000000005F924F923F922F9266245524B6E0CB
:102810004B2EB0E32B2EB0E03B2E0E9470992F90F0
:102820003F904F905F90003029F0B0910001B0626E
:10283000B093000110900001009000014E7F10FC49
:1028400005FE01C041605F924F923F922F92B1E02E
:102850006B2E5524B6E04B2EB0E32B2EB0E03B2E72
:102860000E9470992F903F904F905F90112740FDEC
:102870001395012309F4BCC0B0910001BE7FB09351
:102880000001B0910001BF7DB09300015F924F92B3
:102890003F922F920E9486732F903F904F905F90AF
:1028A0000091780D102F1F5F1093780D009126076F
:1028B000101719F4B1E0B093780DB1E03B1609F0B0
:1028C00049C0FE01B3E5B193B1E6B193B6E7B19368
:1028D000B5E6B193B0E2B193B9E6B193B3E7B19382
:1028E000B0E2B193B0E0B1938E015F924F923F920C
:1028F0002F922801B1E03B2EB1E02B2E0E94D1A0F7
:10290000FE01B3E7B193B5E6B193BCE6B193B5E68A
:10291000B193B3E6B193B4E7B193B5E6B193B4E63E
:10292000B193B0E0B1938E012801B1E03B2EB2E04B
:102930002B2E0E94D1A02F903F904F905F9025E1C9
:102940001BE40FEB0A95F1F71A95E1F72A95D1F7F9
:1029500000004EC0FE01BEE4B193BFE6B193B0E209
:10296000B193B3E5B193B1E6B193B6E7B193B5E6F0
:10297000B193B0E2B193B9E6B193B3E7B193B0E2EA
:10298000B193B0E0B1938E015F924F923F922F923C
:102990002801B1E03B2EB1E02B2E0E94D1A0FE0118
:1029A000B3E7B193B5E6B193BCE6B193B5E6B193A5
:1029B000B3E6B193B4E7B193B5E6B193B4E6B1939E
:1029C000B0E0B1938E012801B1E03B2EB2E02B2E96
:1029D0000E94D1A02F903F904F905F9025E11BE483
:1029E0000FEB0A95F1F71A95E1F72A95D1F7000058
:1029F0003092890DB2CC6F906096CDBFDEBFDF9173
:102A0000CF9108952F928F927F926F925F924F9203
:102A10003F922F920E945305B0ED2B2E0E94DA05B3
:102A200022240E94DA05B0E82B2E0E94DA052F90AE
:102A30003F902F92232C0E94DA052F900E94DA05F6
:102A40004F905F906F905F924F92262C0E94DA0514
:102A50004F905F904F92252C0E94DA054F907F9007
:102A60004F92272C0E94DA054F908F904F92282C7E
:102A70000E94DA050E94A3050E945305B0ED2B2E9B
:102A80000E94DA0522240E94DA054F90042D00707E
:102A9000202E0E94DA050E94A3052F900895CF935F
:102AA000DF93CDB7DEB72B97CDBFDEBF21962F9238
:102AB0003F924F92B0E0B0938A0DB0938B0DB1E08E
:102AC000BA83B1E0B0932307B1E0B0930101B1E064
:102AD000B883B0E0B98300918A0D10918B0D0F5F20
:102AE0001F4F09871A870A81015010E040EE50E01D
:102AF0000E944B0520E537E0020F131F40910101B2
:102B000041500F83188708E310E050E00E944B0506
:102B10002F813885200F311F00912307015010E0CD
:102B2000000F111F000F111F000F111F200F311F69
:102B30000881015010E0000F111F000F111FF80154
:102B4000E20FF31F208109851A85422E18010E9489
:102B5000170900918A0D10918B0D0F5F1F4F0F5FAA
:102B60001F4F09871A870A81015010E040EE50E09C
:102B70000E944B0520E537E0020F131F4091010131
:102B800041500F83188708E310E050E00E944B0586
:102B90002F813885200F311F00912307015010E04D
:102BA000000F111F000F111F000F111F200F311FE9
:102BB0000881015010E0000F111F000F111F020FBC
:102BC000131FF8013196208109851A85422E1801BC
:102BD0000E94170900918A0D10918B0D0F5F1F4FF6
:102BE0000E5F1F4F09871A870A81015010E040EEDF
:102BF00050E00E944B0520E537E0020F131F409183
:102C0000010141500F83188708E310E050E00E9453
:102C10004B052F813885200F311F0091230701506C
:102C200010E0000F111F000F111F000F111F200FC8
:102C3000311F0881015010E0000F111F000F111FFC
:102C4000020F131FF8013296208109851A85422E42
:102C500018010E94170900918A0D10918B0D0F5FCA
:102C60001F4F0D5F1F4F09871A870A81015010E01F
:102C700040EE50E00E944B0520E537E0020F131FA5
:102C80004091010141500F83188708E310E050E0A4
:102C90000E944B052F813885200F311F009123079B
:102CA000015010E0000F111F000F111F000F111F26
:102CB000200F311F0881015010E0000F111F000F7D
:102CC000111F020F131FF8013396208109851A8501
:102CD000422E18010E94170900918A0D10918B0D48
:102CE0000C5F1F4F00938A0D10938B0D0881198183
:102CF000103009F4023039F0088119810F5F1F4F3D
:102D000008831983E8CE00910101043031F000916D
:102D100001010F5F00930101DACE00912307073014
:102D200031F0009123070F5F00932307CDCE0A8176
:102D3000073021F00A810F5F0A83C3CE4F903F9086
:102D40002F902A96CDBFDEBFDF91CF910895CF930C
:102D5000DF93CDB7DEB76497CDBFDEBF2196B091CC
:102D60000001B160B0930001B0910001BD7FB0934C
:102D700000016F925F924F923F922F920E94867352
:102D80002F903F904F905F906F90B0910001B0FFF7
:102D90000C94621F6F925F924F923F922F92232C5E
:102DA000BDE43B2EB7E04B2E0E9474052F903F9060
:102DB0004F904F923F922F92242CB6EA3B2EBDE0CB
:102DC0004B2E0E9474058E01302E412E2090010161
:102DD0000E9474052F903F904F905F906F90B1E0EC
:102DE0002B1609F0E3C08E016F925F924F923F92D3
:102DF0002F922801B2E03B2EB1E02B2E0E94D1A0F1
:102E0000B3E4BB83B8E6BC83BAE3BD83B0E0BE8362
:102E10008E010D5F1F4F2801B1E03B2EB1E02B2E3C
:102E20000E94D1A0BDE44B2EB7E05B2EB7E03B2E55
:102E3000B1E02B2E0E94D1A0B6EA4B2EBDE05B2E56
:102E4000BAE03B2EB1E02B2E0E94D1A0BAE3BB83A7
:102E5000B0E0BC838E010D5F1F4F2801BAE03B2E0E
:102E6000B1E02B2E0E94D1A0FE013396B0E5B193C4
:102E7000B2E7B193BAE3B193B1E3B193B0E2B193E6
:102E8000B2E3B193B0E2B193B3E3B193B0E2B193E3
:102E9000B4E3B193B0E2B193B5E3B193B0E2B193CF
:102EA000B6E3B193B0E2B193B7E3B193B0E0B193BD
:102EB0008E010D5F1F4F2801B1E03B2EB2E02B2E9B
:102EC0000E94D1A025E01FE002EF0A95F1F71A95C4
:102ED000E1F72A95D1F7B0E2B093A60DB0E2B09336
:102EE000A70DB0E2B093A80DB0E0B093A90DBDE47A
:102EF0004B2EB7E05B2EB7E03B2EB1E02B2E0E94AD
:102F0000D1A0B6EA4B2EBDE05B2EBAE03B2EB1E07D
:102F10002B2E0E94D1A0BAE3BB83B0E0BC838E010C
:102F20000D5F1F4F2801BAE03B2EB1E02B2E0E940F
:102F3000D1A0FE013396B4E4B193B9E7B193BAE3FB
:102F4000B193B0E2B193B0E2B193B2E3B193B0E226
:102F5000B193B3E3B193B0E2B193B4E3B193B0E210
:102F6000B193B5E3B193B0E2B193B6E3B193B0E2FC
:102F7000B193B7E3B193B0E0B1938E010D5F1F4FF2
:102F80002801B1E03B2EB2E02B2E0E94D1A02F9061
:102F90003F904F905F906F9025E01FE002EF0A9501
:102FA000F1F71A95E1F72A95D1F76AC5B2E02B1629
:102FB00009F0E3C08E016F925F924F923F922F9281
:102FC0002801B2E03B2EB1E02B2E0E94D1A0B3E449
:102FD000BB83B8E6BC83BAE3BD83B0E0BE838E0199
:102FE0000D5F1F4F2801B1E03B2EB1E02B2E0E9458
:102FF000D1A0BDE44B2EB7E05B2EB7E03B2EB1E095
:103000002B2E0E94D1A0B6EA4B2EBDE05B2EBAE07B
:103010003B2EB1E02B2E0E94D1A0BAE3BB83B0E0DF
:10302000BC838E010D5F1F4F2801BAE03B2EB1E03B
:103030002B2E0E94D1A0FE013396B0E5B193B2E7EA
:10304000B193BAE3B193B1E3B193B0E2B193B2E318
:10305000B193B0E2B193B3E3B193B0E2B193B4E30F
:10306000B193B0E2B193B5E3B193B0E2B193B6E3FB
:10307000B193B0E2B193B7E3B193B0E0B1938E01F5
:103080000D5F1F4F2801B1E03B2EB2E02B2E0E94B6
:10309000D1A025E01FE002EF0A95F1F71A95E1F7BC
:1030A0002A95D1F7B0E2B093A60DB0E2B093A70D88
:1030B000B0E2B093A80DB0E0B093A90DBDE44B2EE3
:1030C000B7E05B2EB7E03B2EB1E02B2E0E94D1A0E3
:1030D000B6EA4B2EBDE05B2EBAE03B2EB1E02B2EC4
:1030E0000E94D1A0BAE3BB83B0E0BC838E010D5F28
:1030F0001F4F2801BAE03B2EB1E02B2E0E94D1A039
:10310000FE013396B0E5B193B2E7B193BAE3B19360
:10311000B1E3B193B0E2B193B0E2B193B0E2B19355
:10312000B3E3B193B0E2B193B4E3B193B0E2B1933E
:10313000B5E3B193B0E2B193B6E3B193B0E2B1932A
:10314000B7E3B193B0E0B1938E010D5F1F4F28013B
:10315000B1E03B2EB2E02B2E0E94D1A02F903F90E9
:103160004F905F906F9025E01FE002EF0A95F1F716
:103170001A95E1F72A95D1F783C4B3E02B1609F02D
:10318000E3C08E016F925F924F923F922F9228017F
:10319000B2E03B2EB1E02B2E0E94D1A0B3E4BB8362
:1031A000B8E6BC83BAE3BD83B0E0BE838E010D5F99
:1031B0001F4F2801B1E03B2EB1E02B2E0E94D1A081
:1031C000BDE44B2EB7E05B2EB7E03B2EB1E02B2EDB
:1031D0000E94D1A0B6EA4B2EBDE05B2EBAE03B2E9A
:1031E000B1E02B2E0E94D1A0BAE3BB83B0E0BC8338
:1031F0008E010D5F1F4F2801BAE03B2EB1E02B2E50
:103200000E94D1A0FE013396B0E5B193B2E7B1932D
:10321000BAE3B193B1E3B193B0E2B193B2E3B19346
:10322000B0E2B193B3E3B193B0E2B193B4E3B1933D
:10323000B0E2B193B5E3B193B0E2B193B6E3B19329
:10324000B0E2B193B7E3B193B0E0B1938E010D5FFB
:103250001F4F2801B1E03B2EB2E02B2E0E94D1A0DF
:1032600025E01FE002EF0A95F1F71A95E1F72A959C
:10327000D1F7B0E2B093A60DB0E2B093A70DB0E2E3
:10328000B093A80DB0E0B093A90DBDE44B2EB7E00C
:103290005B2EB7E03B2EB1E02B2E0E94D1A0B6EA08
:1032A0004B2EBDE05B2EBAE03B2EB1E02B2E0E94F0
:1032B000D1A0BAE3BB83B0E0BC838E010D5F1F4F8A
:1032C0002801BAE03B2EB1E02B2E0E94D1A0FE01D6
:1032D0003396B0E5B193B2E7B193BAE3B193B1E3FA
:1032E000B193B0E2B193B2E3B193B0E2B193B0E283
:1032F000B193B0E2B193B4E3B193B0E2B193B5E36B
:10330000B193B0E2B193B6E3B193B0E2B193B7E356
:10331000B193B0E0B1938E010D5F1F4F2801B1E072
:103320003B2EB2E02B2E0E94D1A02F903F904F90C9
:103330005F906F9025E01FE002EF0A95F1F71A9574
:10334000E1F72A95D1F79CC3B4E02B1609F0E3C04E
:103350008E016F925F924F923F922F922801B2E0BE
:103360003B2EB1E02B2E0E94D1A0B3E4BB83B8E684
:10337000BC83BAE3BD83B0E0BE838E010D5F1F4FF7
:103380002801B1E03B2EB1E02B2E0E94D1A0BDE47C
:103390004B2EB7E05B2EB7E03B2EB1E02B2E0E9408
:1033A000D1A0B6EA4B2EBDE05B2EBAE03B2EB1E0D9
:1033B0002B2E0E94D1A0BAE3BB83B0E0BC838E0168
:1033C0000D5F1F4F2801BAE03B2EB1E02B2E0E946B
:1033D000D1A0FE013396B0E5B193B2E7B193BAE361
:1033E000B193B1E3B193B0E2B193B2E3B193B0E280
:1033F000B193B3E3B193B0E2B193B4E3B193B0E26C
:10340000B193B5E3B193B0E2B193B6E3B193B0E257
:10341000B193B7E3B193B0E0B1938E010D5F1F4F4D
:103420002801B1E03B2EB2E02B2E0E94D1A025E076
:103430001FE002EF0A95F1F71A95E1F72A95D1F707
:10344000B0E2B093A60DB0E2B093A70DB0E2B09396
:10345000A80DB0E0B093A90DBDE44B2EB7E05B2EF4
:10346000B7E03B2EB1E02B2E0E94D1A0B6EA4B2E46
:10347000BDE05B2EBAE03B2EB1E02B2E0E94D1A026
:10348000BAE3BB83B0E0BC838E010D5F1F4F280100
:10349000BAE03B2EB1E02B2E0E94D1A0FE01339664
:1034A000BAE3B193B4E4B193B9E7B193B1E3B193A3
:1034B000B0E2B193B2E3B193B0E2B193B3E3B193AD
:1034C000B0E2B193B0E2B193B0E2B193B5E3B1939E
:1034D000B0E2B193B6E3B193B0E2B193B7E3B19385
:1034E000B0E0B1938E010D5F1F4F2801B1E03B2E7C
:1034F000B2E02B2E0E94D1A02F903F904F905F9072
:103500006F9025E01FE002EF0A95F1F71A95E1F7B9
:103510002A95D1F7B5C2B5E02B1609F0E3C08E01AC
:103520006F925F924F923F922F922801B2E03B2E12
:10353000B1E02B2E0E94D1A0B3E4BB83B8E6BC83DC
:10354000BAE3BD83B0E0BE838E010D5F1F4F28013B
:10355000B1E03B2EB1E02B2E0E94D1A0BDE44B2E5A
:10356000B7E05B2EB7E03B2EB1E02B2E0E94D1A03E
:10357000B6EA4B2EBDE05B2EBAE03B2EB1E02B2E1F
:103580000E94D1A0BAE3BB83B0E0BC838E010D5F83
:103590001F4F2801BAE03B2EB1E02B2E0E94D1A094
:1035A000FE013396B0E5B193B2E7B193BAE3B193BC
:1035B000B1E3B193B0E2B193B2E3B193B0E2B193AE
:1035C000B3E3B193B0E2B193B4E3B193B0E2B1939A
:1035D000B5E3B193B0E2B193B6E3B193B0E2B19386
:1035E000B7E3B193B0E0B1938E010D5F1F4F280197
:1035F000B1E03B2EB2E02B2E0E94D1A025E01FE0CF
:1036000002EF0A95F1F71A95E1F72A95D1F7B0E2A2
:10361000B093A60DB0E2B093A70DB0E2B093A80DA1
:10362000B0E0B093A90DBDE44B2EB7E05B2EB7E040
:103630003B2EB1E02B2E0E94D1A0B6EA4B2EBDE06E
:103640005B2EBAE03B2EB1E02B2E0E94D1A0BAE354
:10365000BB83B0E0BC838E010D5F1F4F2801BAE031
:103660003B2EB1E02B2E0E94D1A0FE013396B0E597
:10367000B193B2E7B193BAE3B193B1E3B193B0E2DE
:10368000B193B2E3B193B0E2B193B3E3B193B0E2DB
:10369000B193B4E3B193B0E2B193B0E2B193B0E2CD
:1036A000B193B6E3B193B0E2B193B7E3B193B0E0B5
:1036B000B1938E010D5F1F4F2801B1E03B2EB2E0A8
:1036C0002B2E0E94D1A02F903F904F905F906F9033
:1036D00025E01FE002EF0A95F1F71A95E1F72A9528
:1036E000D1F7CEC1B6E02B1609F0E3C08E016F9280
:1036F0005F924F923F922F922801B2E03B2EB1E0B1
:103700002B2E0E94D1A0B3E4BB83B8E6BC83BAE3FE
:10371000BD83B0E0BE838E010D5F1F4F2801B1E075
:103720003B2EB1E02B2E0E94D1A0BDE44B2EB7E082
:103730005B2EB7E03B2EB1E02B2E0E94D1A0B6EA63
:103740004B2EBDE05B2EBAE03B2EB1E02B2E0E944B
:10375000D1A0BAE3BB83B0E0BC838E010D5F1F4FE5
:103760002801BAE03B2EB1E02B2E0E94D1A0FE0131
:103770003396B0E5B193B2E7B193BAE3B193B1E355
:10378000B193B0E2B193B2E3B193B0E2B193B3E3DA
:10379000B193B0E2B193B4E3B193B0E2B193B5E3C6
:1037A000B193B0E2B193B6E3B193B0E2B193B7E3B2
:1037B000B193B0E0B1938E010D5F1F4F2801B1E0CE
:1037C0003B2EB2E02B2E0E94D1A025E01FE002EF9D
:1037D0000A95F1F71A95E1F72A95D1F7B0E2B0937F
:1037E000A60DB0E2B093A70DB0E2B093A80DB0E083
:1037F000B093A90DBDE44B2EB7E05B2EB7E03B2E96
:10380000B1E02B2E0E94D1A0B6EA4B2EBDE05B2E7C
:10381000BAE03B2EB1E02B2E0E94D1A0BAE3BB83CD
:10382000B0E0BC838E010D5F1F4F2801BAE03B2E34
:10383000B1E02B2E0E94D1A0FE013396B0E5B193EA
:10384000B2E7B193BAE3B193B1E3B193B0E2B1930C
:10385000B2E3B193B0E2B193B3E3B193B0E2B19309
:10386000B4E3B193B0E2B193B5E3B193B0E2B193F5
:10387000B0E2B193B0E2B193B7E3B193B0E0B193EA
:103880008E010D5F1F4F2801B1E03B2EB2E02B2EC1
:103890000E94D1A02F903F904F905F906F9025E0B5
:1038A0001FE002EF0A95F1F71A95E1F72A95D1F793
:1038B000E7C0B7E02B1609F0E3C08E016F925F926C
:1038C0004F923F922F922801B2E03B2EB1E02B2E77
:1038D0000E94D1A0B3E4BB83B8E6BC83BAE3BD8346
:1038E000B0E0BE838E010D5F1F4F2801B1E03B2E7B
:1038F000B1E02B2E0E94D1A0BDE44B2EB7E05B2E91
:10390000B7E03B2EB1E02B2E0E94D1A0B6EA4B2EA1
:10391000BDE05B2EBAE03B2EB1E02B2E0E94D1A081
:10392000BAE3BB83B0E0BC838E010D5F1F4F28015B
:10393000BAE03B2EB1E02B2E0E94D1A0FE013396BF
:10394000B0E5B193B2E7B193BAE3B193B1E3B19308
:10395000B0E2B193B2E3B193B0E2B193B3E3B19308
:10396000B0E2B193B4E3B193B0E2B193B5E3B193F4
:10397000B0E2B193B6E3B193B0E2B193B7E3B193E0
:10398000B0E0B1938E010D5F1F4F2801B1E03B2ED7
:10399000B2E02B2E0E94D1A025E01FE002EF0A9595
:1039A000F1F71A95E1F72A95D1F7B0E2B093A60D99
:1039B000B0E2B093A70DB0E2B093A80DB0E0B09321
:1039C000A90DBDE44B2EB7E05B2EB7E03B2EB1E076
:1039D0002B2E0E94D1A0B6EA4B2EBDE05B2EBAE0A2
:1039E0003B2EB1E02B2E0E94D1A0BAE3BB83B0E006
:1039F000BC838E010D5F1F4F2801BAE03B2EB1E062
:103A00002B2E0E94D1A0FE013396B0E5B193B2E710
:103A1000B193BAE3B193B1E3B193B0E2B193B2E33E
:103A2000B193B0E2B193B3E3B193B0E2B193B4E335
:103A3000B193B0E2B193B5E3B193B0E2B193B6E321
:103A4000B193B0E2B193B0E2B193B0E0B1938E0123
:103A50000D5F1F4F2801B1E03B2EB2E02B2E0E94DC
:103A6000D1A02F903F904F905F906F9025E01FE086
:103A700002EF0A95F1F71A95E1F72A95D1F700C000
:103A80006F925F924F923F922F9266245524B5E039
:103A90004B2EB2E32B2EB0E03B2E0E9470992F905C
:103AA0003F904F905F906F90002329F0B0910001FC
:103AB000B062B09300016F925F924F923F922F924B
:103AC000B1E06B2E5524B5E04B2EB0E32B2EB0E0C9
:103AD0003B2E0E9470992F903F904F905F906F9077
:103AE00000900001112705FC1395012339F04514BE
:103AF00010F0462C03C0042D0F5F402EB091000142
:103B0000B062B09300016F925F924F923F922F92FA
:103B100066245524B4E04B2EB2E32B2EB0E03B2EAE
:103B20000E9470992F903F904F905F906F9000236C
:103B300029F0B0910001B062B09300016F925F92E2
:103B40004F923F922F92B1E06B2E5524B4E04B2E52
:103B5000B0E32B2EB0E03B2E0E9470992F903F9047
:103B60004F905F906F9000900001112705FC139516
:103B7000012339F0641410F0452C03C0042D0150CA
:103B8000402E3092890D6F925F924F923F922F920A
:103B900066245524B2E04B2EB0E32B2EB0E03B2E32
:103BA0000E9470992F903F904F905F906F900030DF
:103BB00029F0B0910001B260B09300016F925F9262
:103BC0004F923F922F92B1E06B2E5524B2E04B2ED4
:103BD000B0E32B2EB0E03B2E0E9470992F903F90C7
:103BE0004F905F906F9000900001112701FC13959A
:103BF000012309F48DC0B0910001BD7FB093000195
:103C0000B0910001BE7FB09300010091780D102F9C
:103C10001F5F1093780D00912607101719F4B1E07B
:103C2000B093780D6F925F924F923F922F920E94C5
:103C30008673FE013396BFE4B193B6E6B193B6E660
:103C4000B193B0E2B193B4E7B193B9E6B193BDE6F5
:103C5000B193B5E6B193B0E2B193B9E6B193B3E7EE
:103C6000B193B0E2B193B0E0B1938E010D5F1F4FFD
:103C70002801B1E03B2EB1E02B2E0E94D1A02F9065
:103C80003F903F922F92232CBDE43B2EB7E04B2E6A
:103C90000E9474052F903F904F904F923F922F9229
:103CA000242CB6EA3B2EBDE04B2E0E947405BDE4E9
:103CB0004B2EB7E05B2EB5E03B2EB2E02B2E0E94E0
:103CC000D1A0B6EA4B2EBDE05B2EB8E03B2EB2E0B1
:103CD0002B2E0E94D1A0BAE3BB83B0E0BC838E013F
:103CE0000D5F1F4F2801B8E03B2EB2E02B2E0E9443
:103CF000D1A02F903F904F905F906F9025E11BE4F3
:103D00000FEB0A95F1F71A95E1F72A95D1F7000024
:103D10006F925F924F923F922F9266245524B6E0A5
:103D20004B2EB0E32B2EB0E03B2E0E9470992F90CB
:103D30003F904F905F906F90003029F0B09100015C
:103D4000B062B093000110900001009000014E7F1E
:103D500010FC05FE01C041606F925F924F923F924E
:103D60002F92B1E06B2E5524B6E04B2EB0E32B2EF4
:103D7000B0E03B2E0E9470992F903F904F905F9043
:103D80006F90112740FD1395012309F497C0B0915E
:103D90000001BE7FB0930001B0910001BF7DB093E0
:103DA00000016F925F924F923F922F920E94867312
:103DB0002F903F904F905F906F900091780D102F53
:103DC0001F5F1093780D00912607101719F4B1E0CA
:103DD000B093780DFE013396BFE4B193B6E6B1938C
:103DE000B6E6B193B0E2B193B4E7B193B9E6B1935B
:103DF000BDE6B193B5E6B193B0E2B193B9E6B19344
:103E0000B3E7B193B0E2B193B0E0B1938E010D5F2F
:103E10001F4F6F925F924F923F922F922801B1E015
:103E20003B2EB1E02B2E0E94D1A02F903F903F92CD
:103E30002F92232CBDE43B2EB7E04B2E0E9474053D
:103E40002F903F904F904F923F922F92242CB6EAA2
:103E50003B2EBDE04B2E0E947405BDE44B2EB7E017
:103E60005B2EB5E03B2EB2E02B2E0E94D1A0B6EA2D
:103E70004B2EBDE05B2EB8E03B2EB2E02B2E0E9415
:103E8000D1A0BAE3BB83B0E0BC838E010D5F1F4FAE
:103E90002801B8E03B2EB2E02B2E0E94D1A02F903B
:103EA0003F904F905F906F9025E11BE40FEB0A95D8
:103EB000F1F71A95E1F72A95D1F700004092890DA4
:103EC0000C94C5166396CDBFDEBFDF91CF910895E8
:103ED000CF93DF93CDB7DEB76197CDBFDEBF21961D
:103EE0006F92B0910001B160B0930001B0910001F8
:103EF000BD7FB0930001B0910001B0FF0C94D92CAC
:103F0000B1E03B1609F072C5B1E02B1609F0C3C051
:103F1000FE01B8E2B193BFE4B193BEE6B193BAE358
:103F2000B193BFE4B193B6E6B193B6E6B193B9E20B
:103F3000B193B0E2B193B0E2B193B8E2B193B0E51E
:103F4000B193B7E5B193BDE4B193B9E2B193B0E0F9
:103F5000B1938E015F924F923F922F922801B1E070
:103F60003B2EB1E02B2E0E94D1A0FE01B0E5B19313
:103F7000B2E7B193BAE3B193B1E3B193B0E2B193D5
:103F8000B2E3B193B0E2B193B3E3B193B0E2B193D2
:103F9000B4E3B193B0E2B193B5E3B193B0E2B193BE
:103FA000B6E3B193B0E2B193B7E3B193B0E0B193AC
:103FB0008E012801B1E03B2EB2E02B2E0E94D1A051
:103FC00025E01FE002EF0A95F1F71A95E1F72A952F
:103FD000D1F7FE01B8E2B193B0E2B193B0E2B19390
:103FE000BAE3B193BFE4B193B6E6B193B6E6B19349
:103FF000B9E2B193B0E2B193B0E2B193B8E2B19358
:10400000B0E5B193B7E5B193BDE4B193B9E2B19333
:10401000B0E0B1938E012801B1E03B2EB1E02B2E30
:104020000E94D1A0FE01B4E4B193B9E7B193BAE321
:10403000B193B0E2B193B0E2B193B2E3B193B0E225
:10404000B193B3E3B193B0E2B193B4E3B193B0E20F
:10405000B193B5E3B193B0E2B193B6E3B193B0E2FB
:10406000B193B7E3B193B0E0B1938E012801B1E011
:104070003B2EB2E02B2E0E94D1A02F903F904F906C
:104080005F9025E01FE002EF0A95F1F71A95E1F73E
:104090002A95D1F7AAC4B2E02B1609F0C3C0FE01DD
:1040A000B8E2B193BFE4B193BEE6B193BAE3B19382
:1040B000BFE4B193B6E6B193B6E6B193B9E2B1937A
:1040C000B0E2B193B0E2B193B8E2B193B0E5B1938D
:1040D000B7E5B193BDE4B193B9E2B193B0E0B19368
:1040E0008E015F924F923F922F922801B1E03B2EBA
:1040F000B1E02B2E0E94D1A0FE01B0E5B193B2E752
:10410000B193BAE3B193B1E3B193B0E2B193B2E347
:10411000B193B0E2B193B3E3B193B0E2B193B4E33E
:10412000B193B0E2B193B5E3B193B0E2B193B6E32A
:10413000B193B0E2B193B7E3B193B0E0B1938E0124
:104140002801B1E03B2EB2E02B2E0E94D1A025E049
:104150001FE002EF0A95F1F71A95E1F72A95D1F7DA
:10416000FE01B8E2B193B0E2B193B0E2B193BAE329
:10417000B193BFE4B193B6E6B193B6E6B193B9E2B9
:10418000B193B0E2B193B0E2B193B8E2B193B0E5CC
:10419000B193B7E5B193BDE4B193B9E2B193B0E0A7
:1041A000B1938E012801B1E03B2EB1E02B2E0E948D
:1041B000D1A0FE01B0E5B193B2E7B193BAE3B193F8
:1041C000B1E3B193B0E2B193B0E2B193B0E2B19395
:1041D000B3E3B193B0E2B193B4E3B193B0E2B1937E
:1041E000B5E3B193B0E2B193B6E3B193B0E2B1936A
:1041F000B7E3B193B0E0B1938E012801B1E03B2E5B
:10420000B2E02B2E0E94D1A02F903F904F905F9054
:1042100025E01FE002EF0A95F1F71A95E1F72A95DC
:10422000D1F7E3C3B3E02B1609F0C3C0FE01B8E237
:10423000B193BFE4B193BEE6B193BAE3B193BFE4E7
:10424000B193B6E6B193B6E6B193B9E2B193B0E2F9
:10425000B193B0E2B193B8E2B193B0E5B193B7E5F1
:10426000B193BDE4B193B9E2B193B0E0B1938E01E3
:104270005F924F923F922F922801B1E03B2EB1E026
:104280002B2E0E94D1A0FE01B0E5B193B2E7B1930D
:10429000BAE3B193B1E3B193B0E2B193B2E3B193B6
:1042A000B0E2B193B3E3B193B0E2B193B4E3B193AD
:1042B000B0E2B193B5E3B193B0E2B193B6E3B19399
:1042C000B0E2B193B7E3B193B0E0B1938E012801AE
:1042D000B1E03B2EB2E02B2E0E94D1A025E01FE0E2
:1042E00002EF0A95F1F71A95E1F72A95D1F7FE0149
:1042F000B8E2B193B0E2B193B0E2B193BAE3B19353
:10430000BFE4B193B6E6B193B6E6B193B9E2B19327
:10431000B0E2B193B0E2B193B8E2B193B0E5B1933A
:10432000B7E5B193BDE4B193B9E2B193B0E0B19315
:104330008E012801B1E03B2EB1E02B2E0E94D1A0CE
:10434000FE01B0E5B193B2E7B193BAE3B193B1E343
:10435000B193B0E2B193B2E3B193B0E2B193B0E202
:10436000B193B0E2B193B4E3B193B0E2B193B5E3EA
:10437000B193B0E2B193B6E3B193B0E2B193B7E3D6
:10438000B193B0E0B1938E012801B1E03B2EB2E0D1
:104390002B2E0E94D1A02F903F904F905F9025E050
:1043A0001FE002EF0A95F1F71A95E1F72A95D1F788
:1043B0001CC3B4E02B1609F0C3C0FE01B8E2B193F0
:1043C000BFE4B193BEE6B193BAE3B193BFE4B19356
:1043D000B6E6B193B6E6B193B9E2B193B0E2B19368
:1043E000B0E2B193B8E2B193B0E5B193B7E5B19360
:1043F000BDE4B193B9E2B193B0E0B1938E015F92A5
:104400004F923F922F922801B1E03B2EB1E02B2E2C
:104410000E94D1A0FE01B0E5B193B2E7B193BAE337
:10442000B193B1E3B193B0E2B193B2E3B193B0E22F
:10443000B193B3E3B193B0E2B193B4E3B193B0E21B
:10444000B193B5E3B193B0E2B193B6E3B193B0E207
:10445000B193B7E3B193B0E0B1938E012801B1E01D
:104460003B2EB2E02B2E0E94D1A025E01FE002EFF0
:104470000A95F1F71A95E1F72A95D1F7FE01B8E20E
:10448000B193B0E2B193B0E2B193BAE3B193BFE4B8
:10449000B193B6E6B193B6E6B193B9E2B193B0E2A7
:1044A000B193B0E2B193B8E2B193B0E5B193B7E59F
:1044B000B193BDE4B193B9E2B193B0E0B1938E0191
:1044C0002801B1E03B2EB1E02B2E0E94D1A0FE01CD
:1044D000B0E5B193B2E7B193BAE3B193B1E3B1936D
:1044E000B0E2B193B2E3B193B0E2B193B3E3B1936D
:1044F000B0E2B193B0E2B193B0E2B193B5E3B1935E
:10450000B0E2B193B6E3B193B0E2B193B7E3B19344
:10451000B0E0B1938E012801B1E03B2EB2E02B2E2A
:104520000E94D1A02F903F904F905F9025E01FE018
:1045300002EF0A95F1F71A95E1F72A95D1F755C2DE
:10454000B5E02B1609F0C3C0FE01B8E2B193BFE499
:10455000B193BEE6B193BAE3B193BFE4B193B6E6CB
:10456000B193B6E6B193B9E2B193B0E2B193B0E2E0
:10457000B193B8E2B193B0E5B193B7E5B193BDE4BF
:10458000B193B9E2B193B0E0B1938E015F924F92D3
:104590003F922F922801B1E03B2EB1E02B2E0E94DA
:1045A000D1A0FE01B0E5B193B2E7B193BAE3B19304
:1045B000B1E3B193B0E2B193B2E3B193B0E2B1939E
:1045C000B3E3B193B0E2B193B4E3B193B0E2B1938A
:1045D000B5E3B193B0E2B193B6E3B193B0E2B19376
:1045E000B7E3B193B0E0B1938E012801B1E03B2E67
:1045F000B2E02B2E0E94D1A025E01FE002EF0A9529
:10460000F1F71A95E1F72A95D1F7FE01B8E2B193D7
:10461000B0E2B193B0E2B193BAE3B193BFE4B19326
:10462000B6E6B193B6E6B193B9E2B193B0E2B19315
:10463000B0E2B193B8E2B193B0E5B193B7E5B1930D
:10464000BDE4B193B9E2B193B0E0B1938E0128011A
:10465000B1E03B2EB1E02B2E0E94D1A0FE01B0E5CF
:10466000B193B2E7B193BAE3B193B1E3B193B0E2DE
:10467000B193B2E3B193B0E2B193B3E3B193B0E2DB
:10468000B193B4E3B193B0E2B193B0E2B193B0E2CD
:10469000B193B6E3B193B0E2B193B7E3B193B0E0B5
:1046A000B1938E012801B1E03B2EB2E02B2E0E9487
:1046B000D1A02F903F904F905F9025E01FE002EF38
:1046C0000A95F1F71A95E1F72A95D1F78EC1B6E070
:1046D0002B1609F0C3C0FE01B8E2B193BFE4B19359
:1046E000BEE6B193BAE3B193BFE4B193B6E6B1933A
:1046F000B6E6B193B9E2B193B0E2B193B0E2B1934F
:10470000B8E2B193B0E5B193B7E5B193BDE4B1932D
:10471000B9E2B193B0E0B1938E015F924F923F92B4
:104720002F922801B1E03B2EB1E02B2E0E94D1A0A8
:10473000FE01B0E5B193B2E7B193BAE3B193B1E34F
:10474000B193B0E2B193B2E3B193B0E2B193B3E30A
:10475000B193B0E2B193B4E3B193B0E2B193B5E3F6
:10476000B193B0E2B193B6E3B193B0E2B193B7E3E2
:10477000B193B0E0B1938E012801B1E03B2EB2E0DD
:104780002B2E0E94D1A025E01FE002EF0A95F1F741
:104790001A95E1F72A95D1F7FE01B8E2B193B0E29C
:1047A000B193B0E2B193BAE3B193BFE4B193B6E68B
:1047B000B193B6E6B193B9E2B193B0E2B193B0E28E
:1047C000B193B8E2B193B0E5B193B7E5B193BDE46D
:1047D000B193B9E2B193B0E0B1938E012801B1E099
:1047E0003B2EB1E02B2E0E94D1A0FE01B0E5B1938B
:1047F000B2E7B193BAE3B193B1E3B193B0E2B1934D
:10480000B2E3B193B0E2B193B3E3B193B0E2B19349
:10481000B4E3B193B0E2B193B5E3B193B0E2B19335
:10482000B0E2B193B0E2B193B7E3B193B0E0B1932A
:104830008E012801B1E03B2EB2E02B2E0E94D1A0C8
:104840002F903F904F905F9025E01FE002EF0A9578
:10485000F1F71A95E1F72A95D1F7C7C0B7E02B1603
:1048600009F0C3C0FE01B8E2B193BFE4B193BEE664
:10487000B193BAE3B193BFE4B193B6E6B193B6E6B0
:10488000B193B9E2B193B0E2B193B0E2B193B8E2BF
:10489000B193B0E5B193B7E5B193BDE4B193B9E29B
:1048A000B193B0E0B1938E015F924F923F922F92FD
:1048B0002801B1E03B2EB1E02B2E0E94D1A0FE01D9
:1048C000B0E5B193B2E7B193BAE3B193B1E3B19379
:1048D000B0E2B193B2E3B193B0E2B193B3E3B19379
:1048E000B0E2B193B4E3B193B0E2B193B5E3B19365
:1048F000B0E2B193B6E3B193B0E2B193B7E3B19351
:10490000B0E0B1938E012801B1E03B2EB2E02B2E36
:104910000E94D1A025E01FE002EF0A95F1F71A9559
:10492000E1F72A95D1F7FE01B8E2B193B0E2B19375
:10493000B0E2B193BAE3B193BFE4B193B6E6B193F9
:10494000B6E6B193B9E2B193B0E2B193B0E2B193FC
:10495000B8E2B193B0E5B193B7E5B193BDE4B193DB
:10496000B9E2B193B0E0B1938E012801B1E03B2EE2
:10497000B1E02B2E0E94D1A0FE01B0E5B193B2E7C9
:10498000B193BAE3B193B1E3B193B0E2B193B2E3BF
:10499000B193B0E2B193B3E3B193B0E2B193B4E3B6
:1049A000B193B0E2B193B5E3B193B0E2B193B6E3A2
:1049B000B193B0E2B193B0E2B193B0E0B1938E01A4
:1049C0002801B1E03B2EB2E02B2E0E94D1A02F9007
:1049D0003F904F905F9025E01FE002EF0A95F1F7BE
:1049E0001A95E1F72A95D1F700C06DC5B1E02B16F5
:1049F00009F0C3C0FE01B8E2B193BFE4B193BEE6D3
:104A0000B193BAE3B193BFE4B193B6E6B193B6E61E
:104A1000B193B9E2B193B0E2B193B0E2B193B8E22D
:104A2000B193B0E5B193B7E5B193BDE4B193B9E209
:104A3000B193B0E0B1938E015F924F923F922F926B
:104A40002801B1E03B2EB1E02B2E0E94D1A0FE0147
:104A5000B0E5B193B2E7B193BAE3B193B1E3B193E7
:104A6000B0E2B193B2E3B193B0E2B193B3E3B193E7
:104A7000B0E2B193B4E3B193B0E2B193B5E3B193D3
:104A8000B0E2B193B6E3B193B0E2B193B7E3B193BF
:104A9000B0E0B1938E012801B1E03B2EB2E02B2EA5
:104AA0000E94D1A025E01FE002EF0A95F1F71A95C8
:104AB000E1F72A95D1F7FE01B8E2B193BFE4B193D3
:104AC000BEE6B193BAE3B193B0E2B193B0E2B19371
:104AD000B0E2B193B9E2B193B0E2B193B0E2B19375
:104AE000B8E2B193B0E5B193B7E5B193BDE4B1934A
:104AF000B9E2B193B0E0B1938E012801B1E03B2E51
:104B0000B1E02B2E0E94D1A0FE01B4E4B193B9E72D
:104B1000B193BAE3B193B0E2B193B0E2B193B2E32F
:104B2000B193B0E2B193B3E3B193B0E2B193B4E324
:104B3000B193B0E2B193B5E3B193B0E2B193B6E310
:104B4000B193B0E2B193B7E3B193B0E0B1938E010A
:104B50002801B1E03B2EB2E02B2E0E94D1A02F9075
:104B60003F904F905F9025E01FE002EF0A95F1F72C
:104B70001A95E1F72A95D1F7A6C4B2E02B1609F0F1
:104B8000C3C0FE01B8E2B193BFE4B193BEE6B193F6
:104B9000BAE3B193BFE4B193B6E6B193B6E6B1938D
:104BA000B9E2B193B0E2B193B0E2B193B8E2B1939C
:104BB000B0E5B193B7E5B193BDE4B193B9E2B19378
:104BC000B0E0B1938E015F924F923F922F922801F5
:104BD000B1E03B2EB1E02B2E0E94D1A0FE01B0E54A
:104BE000B193B2E7B193BAE3B193B1E3B193B0E259
:104BF000B193B2E3B193B0E2B193B3E3B193B0E256
:104C0000B193B4E3B193B0E2B193B5E3B193B0E241
:104C1000B193B6E3B193B0E2B193B7E3B193B0E02F
:104C2000B1938E012801B1E03B2EB2E02B2E0E9401
:104C3000D1A025E01FE002EF0A95F1F71A95E1F700
:104C40002A95D1F7FE01B8E2B193BFE4B193BEE675
:104C5000B193BAE3B193B0E2B193B0E2B193B0E2F1
:104C6000B193B9E2B193B0E2B193B0E2B193B8E2DB
:104C7000B193B0E5B193B7E5B193BDE4B193B9E2B7
:104C8000B193B0E0B1938E012801B1E03B2EB1E0C9
:104C90002B2E0E94D1A0FE01B0E5B193B2E7B193F3
:104CA000BAE3B193B1E3B193B0E2B193B0E2B1939F
:104CB000B0E2B193B3E3B193B0E2B193B4E3B19393
:104CC000B0E2B193B5E3B193B0E2B193B6E3B1937F
:104CD000B0E2B193B7E3B193B0E0B1938E01280194
:104CE000B1E03B2EB2E02B2E0E94D1A02F903F903E
:104CF0004F905F9025E01FE002EF0A95F1F71A95BB
:104D0000E1F72A95D1F7DFC3B3E02B1609F0C3C052
:104D1000FE01B8E2B193BFE4B193BEE6B193BAE34A
:104D2000B193BFE4B193B6E6B193B6E6B193B9E2FD
:104D3000B193B0E2B193B0E2B193B8E2B193B0E510
:104D4000B193B7E5B193BDE4B193B9E2B193B0E0EB
:104D5000B1938E015F924F923F922F922801B1E062
:104D60003B2EB1E02B2E0E94D1A0FE01B0E5B19305
:104D7000B2E7B193BAE3B193B1E3B193B0E2B193C7
:104D8000B2E3B193B0E2B193B3E3B193B0E2B193C4
:104D9000B4E3B193B0E2B193B5E3B193B0E2B193B0
:104DA000B6E3B193B0E2B193B7E3B193B0E0B1939E
:104DB0008E012801B1E03B2EB2E02B2E0E94D1A043
:104DC00025E01FE002EF0A95F1F71A95E1F72A9521
:104DD000D1F7FE01B8E2B193BFE4B193BEE6B1935F
:104DE000BAE3B193B0E2B193B0E2B193B0E2B19360
:104DF000B9E2B193B0E2B193B0E2B193B8E2B1934A
:104E0000B0E5B193B7E5B193BDE4B193B9E2B19325
:104E1000B0E0B1938E012801B1E03B2EB1E02B2E22
:104E20000E94D1A0FE01B0E5B193B2E7B193BAE31D
:104E3000B193B1E3B193B0E2B193B2E3B193B0E215
:104E4000B193B0E2B193B0E2B193B4E3B193B0E205
:104E5000B193B5E3B193B0E2B193B6E3B193B0E2ED
:104E6000B193B7E3B193B0E0B1938E012801B1E003
:104E70003B2EB2E02B2E0E94D1A02F903F904F905E
:104E80005F9025E01FE002EF0A95F1F71A95E1F730
:104E90002A95D1F718C3B4E02B1609F0C3C0FE0160
:104EA000B8E2B193BFE4B193BEE6B193BAE3B19374
:104EB000BFE4B193B6E6B193B6E6B193B9E2B1936C
:104EC000B0E2B193B0E2B193B8E2B193B0E5B1937F
:104ED000B7E5B193BDE4B193B9E2B193B0E0B1935A
:104EE0008E015F924F923F922F922801B1E03B2EAC
:104EF000B1E02B2E0E94D1A0FE01B0E5B193B2E744
:104F0000B193BAE3B193B1E3B193B0E2B193B2E339
:104F1000B193B0E2B193B3E3B193B0E2B193B4E330
:104F2000B193B0E2B193B5E3B193B0E2B193B6E31C
:104F3000B193B0E2B193B7E3B193B0E0B1938E0116
:104F40002801B1E03B2EB2E02B2E0E94D1A025E03B
:104F50001FE002EF0A95F1F71A95E1F72A95D1F7CC
:104F6000FE01B8E2B193BFE4B193BEE6B193BAE3F8
:104F7000B193B0E2B193B0E2B193B0E2B193B9E2D0
:104F8000B193B0E2B193B0E2B193B8E2B193B0E5BE
:104F9000B193B7E5B193BDE4B193B9E2B193B0E099
:104FA000B1938E012801B1E03B2EB1E02B2E0E947F
:104FB000D1A0FE01B0E5B193B2E7B193BAE3B193EA
:104FC000B1E3B193B0E2B193B2E3B193B0E2B19384
:104FD000B3E3B193B0E2B193B0E2B193B0E2B19375
:104FE000B5E3B193B0E2B193B6E3B193B0E2B1935C
:104FF000B7E3B193B0E0B1938E012801B1E03B2E4D
:10500000B2E02B2E0E94D1A02F903F904F905F9046
:1050100025E01FE002EF0A95F1F71A95E1F72A95CE
:10502000D1F751C2B5E02B1609F0C3C0FE01B8E2BA
:10503000B193BFE4B193BEE6B193BAE3B193BFE4D9
:10504000B193B6E6B193B6E6B193B9E2B193B0E2EB
:10505000B193B0E2B193B8E2B193B0E5B193B7E5E3
:10506000B193BDE4B193B9E2B193B0E0B1938E01D5
:105070005F924F923F922F922801B1E03B2EB1E018
:105080002B2E0E94D1A0FE01B0E5B193B2E7B193FF
:10509000BAE3B193B1E3B193B0E2B193B2E3B193A8
:1050A000B0E2B193B3E3B193B0E2B193B4E3B1939F
:1050B000B0E2B193B5E3B193B0E2B193B6E3B1938B
:1050C000B0E2B193B7E3B193B0E0B1938E012801A0
:1050D000B1E03B2EB2E02B2E0E94D1A025E01FE0D4
:1050E00002EF0A95F1F71A95E1F72A95D1F7FE013B
:1050F000B8E2B193BFE4B193BEE6B193BAE3B19322
:10510000B0E2B193B0E2B193B0E2B193B9E2B1933E
:10511000B0E2B193B0E2B193B8E2B193B0E5B1932C
:10512000B7E5B193BDE4B193B9E2B193B0E0B19307
:105130008E012801B1E03B2EB1E02B2E0E94D1A0C0
:10514000FE01B0E5B193B2E7B193BAE3B193B1E335
:10515000B193B0E2B193B2E3B193B0E2B193B3E3F0
:10516000B193B0E2B193B4E3B193B0E2B193B0E2E2
:10517000B193B0E2B193B6E3B193B0E2B193B7E3C8
:10518000B193B0E0B1938E012801B1E03B2EB2E0C3
:105190002B2E0E94D1A02F903F904F905F9025E042
:1051A0001FE002EF0A95F1F71A95E1F72A95D1F77A
:1051B0008AC1B6E02B1609F0BFC0FE01B8E2B19378
:1051C000BFE4B193BEE6B193BAE3B193BFE4B19348
:1051D000B6E6B193B6E6B193B9E2B193B0E2B1935A
:1051E000B0E2B193B8E2B193B0E5B193B7E5B19352
:1051F000BDE4B193B9E2B193B0E0B1938E015F9297
:105200004F923F922F922801B1E03B2EB1E02B2E1E
:105210000E94D1A0FE01B0E5B193B2E7B193BAE329
:10522000B193B1E3B193B0E2B193B2E3B193B0E221
:10523000B193B3E3B193B0E2B193B4E3B193B0E20D
:10524000B193B5E3B193B0E2B193B6E3B193B0E2F9
:10525000B193B7E3B193B0E0B1938E012801B1E00F
:105260003B2EB2E02B2E0E94D1A025E01FE002EFE2
:105270000A95F1F71A95E1F72A95D1F7FE01B8E200
:10528000B193BFE4B193BEE6B193BAE3B193B0E298
:10529000B193B0E2B193B0E2B193B9E2B193B0E2AD
:1052A000B193B0E2B193B8E2B193B0E5B193B7E591
:1052B000B193BDE4B193B9E2B193B0E0B1938E0183
:1052C0002801B1E03B2EB1E02B2E0E94D1A0FE01BF
:1052D000B6E7B193B1E3B193B0E2B193B2E3B19366
:1052E000B0E2B193B3E3B193B0E2B193B4E3B1935D
:1052F000B0E2B193B5E3B193B0E2B193B0E2B19350
:10530000B0E2B193B7E3B193B0E0B1938E0128015D
:10531000B1E03B2EB2E02B2E0E94D1A02F903F9007
:105320004F905F9025E01FE002EF0A95F1F71A9584
:10533000E1F72A95D1F7C7C0B7E02B1609F0C3C033
:10534000FE01B8E2B193BFE4B193BEE6B193BAE314
:10535000B193BFE4B193B6E6B193B6E6B193B9E2C7
:10536000B193B0E2B193B0E2B193B8E2B193B0E5DA
:10537000B193B7E5B193BDE4B193B9E2B193B0E0B5
:10538000B1938E015F924F923F922F922801B1E02C
:105390003B2EB1E02B2E0E94D1A0FE01B0E5B193CF
:1053A000B2E7B193BAE3B193B1E3B193B0E2B19391
:1053B000B2E3B193B0E2B193B3E3B193B0E2B1938E
:1053C000B4E3B193B0E2B193B5E3B193B0E2B1937A
:1053D000B6E3B193B0E2B193B7E3B193B0E0B19368
:1053E0008E012801B1E03B2EB2E02B2E0E94D1A00D
:1053F00025E01FE002EF0A95F1F71A95E1F72A95EB
:10540000D1F7FE01B8E2B193BFE4B193BEE6B19328
:10541000BAE3B193B0E2B193B0E2B193B0E2B19329
:10542000B9E2B193B0E2B193B0E2B193B8E2B19313
:10543000B0E5B193B7E5B193BDE4B193B9E2B193EF
:10544000B0E0B1938E012801B1E03B2EB1E02B2EEC
:105450000E94D1A0FE01B0E5B193B2E7B193BAE3E7
:10546000B193B1E3B193B0E2B193B2E3B193B0E2DF
:10547000B193B3E3B193B0E2B193B4E3B193B0E2CB
:10548000B193B5E3B193B0E2B193B6E3B193B0E2B7
:10549000B193B0E2B193B0E0B1938E012801B1E0D5
:1054A0003B2EB2E02B2E0E94D1A02F903F904F9028
:1054B0005F9025E01FE002EF0A95F1F71A95E1F7FA
:1054C0002A95D1F700C05F924F923F922F926624A7
:1054D0005524B5E04B2EB2E32B2EB0E03B2E0E94BC
:1054E00070992F903F904F905F90002329F0B091DA
:1054F0000001B062B09300015F924F923F922F92F1
:10550000B1E06B2E5524B5E04B2EB0E32B2EB0E06E
:105510003B2E0E9470992F903F904F905F9000908B
:105520000001112705FC1395012339F0341411F4FF
:10553000352C03C0032D0F5F302EB0910001B062F7
:10554000B09300015F924F923F922F9266245524B0
:10555000B4E04B2EB2E32B2EB0E03B2E0E947099AC
:105560002F903F904F905F90002329F0B091000161
:10557000B062B09300015F924F923F922F92B1E0E0
:105580006B2E5524B4E04B2EB0E32B2EB0E03B2E17
:105590000E9470992F903F904F905F900090000173
:1055A000112705FC1395012339F0351411F4342C1F
:1055B00003C0032D0150302E3092890D5F924F921F
:1055C0003F922F9266245524B2E04B2EB0E32B2E4F
:1055D000B0E03B2E0E9470992F903F904F905F90CB
:1055E000003029F0B0910001B260B09300015F92E9
:1055F0004F923F922F92B1E06B2E5524B2E04B2E8A
:10560000B0E32B2EB0E03B2E0E9470992F903F907C
:105610004F905F9000900001112701FC139501232A
:1056200009F4C4C0B0910001BD7FB0930001B091F6
:105630000001BE7FB09300010091780D102F1F5F15
:105640001093780D00912607101719F4B1E0B0936C
:10565000780D5F924F923F922F920E9486732F9007
:105660003F904F905F90B2E03B1609F051C0FE01B1
:10567000BFE4B193B6E6B193B6E6B193B0E2B193AD
:10568000B4E7B193B9E6B193BDE6B193B5E6B19392
:10569000B0E2B193B9E6B193B3E7B193B0E2B1939D
:1056A000B0E0B1938E015F924F923F922F9228010A
:1056B000B1E03B2EB1E02B2E0E94D1A0FE01B3E75A
:1056C000B193B5E6B193BCE6B193B5E6B193B3E659
:1056D000B193B4E7B193B5E6B193B4E6B193B0E05A
:1056E000B1938E012801B1E03B2EB2E02B2E0E9437
:1056F000D1A02F903F904F905F9025E11BE40FEBDE
:105700000A95F1F71A95E1F72A95D1F700004EC0F6
:10571000FE01BFE4B193BEE6B193B0E2B193B4E74A
:10572000B193B9E6B193BDE6B193B5E6B193B0E2FA
:10573000B193B9E6B193B3E7B193B0E2B193B0E0FE
:10574000B1938E015F924F923F922F922801B1E068
:105750003B2EB1E02B2E0E94D1A0FE01B3E7B19306
:10576000B5E6B193BCE6B193B5E6B193B3E6B193B8
:10577000B4E7B193B5E6B193B4E6B193B0E0B193B9
:105780008E012801B1E03B2EB2E02B2E0E94D1A069
:105790002F903F904F905F9025E11BE40FEB0A950F
:1057A000F1F71A95E1F72A95D1F700005F924F9231
:1057B0003F922F9266245524B6E04B2EB0E32B2E59
:1057C000B0E03B2E0E9470992F903F904F905F90D9
:1057D000003029F0B0910001B062B0930001109048
:1057E0000001009000014E7F10FC05FE01C04160E9
:1057F0005F924F923F922F92B1E06B2E5524B6E00C
:105800004B2EB0E32B2EB0E03B2E0E9470992F90D0
:105810003F904F905F90112740FD1395012309F4AD
:10582000C4C0B0910001BE7FB0930001B0910001EF
:10583000BF7DB09300015F924F923F922F920E94E2
:1058400086732F903F904F905F900091780D102FAE
:105850001F5F1093780D00912607101719F4B1E01F
:10586000B093780DB2E03B1609F051C0FE01BFE4E1
:10587000B193B6E6B193B6E6B193B0E2B193B4E7B3
:10588000B193B9E6B193BDE6B193B5E6B193B0E299
:10589000B193B9E6B193B3E7B193B0E2B193B0E09D
:1058A000B1938E015F924F923F922F922801B1E007
:1058B0003B2EB1E02B2E0E94D1A0FE01B3E7B193A5
:1058C000B5E6B193BCE6B193B5E6B193B3E6B19357
:1058D000B4E7B193B5E6B193B4E6B193B0E0B19358
:1058E0008E012801B1E03B2EB2E02B2E0E94D1A008
:1058F0002F903F904F905F9025E11BE40FEB0A95AE
:10590000F1F71A95E1F72A95D1F700004EC0FE0194
:10591000BFE4B193BEE6B193B0E2B193B4E7B19303
:10592000B9E6B193BDE6B193B5E6B193B0E2B193F8
:10593000B9E6B193B3E7B193B0E2B193B0E0B193FC
:105940008E015F924F923F922F922801B1E03B2E41
:10595000B1E02B2E0E94D1A0FE01B3E7B193B5E6D2
:10596000B193BCE6B193B5E6B193B3E6B193B4E7B6
:10597000B193B5E6B193B4E6B193B0E0B1938E01C3
:105980002801B1E03B2EB2E02B2E0E94D1A02F9037
:105990003F904F905F9025E11BE40FEB0A95F1F7E4
:1059A0001A95E1F72A95D1F700003092890D0C94F1
:1059B0007B1F6F906096CDBFDEBFDF91CF910895C2
:1059C000CF93DF93CDB7DEB72997CDBFDEBF21964A
:1059D0005F926F92B0910001B160B0930001B091FD
:1059E0000001BD7FB0930001B0910001B0FFD1C1B3
:1059F0004F923F922F926624B2E05B2EB5E04B2E81
:105A0000B2E32B2EB0E03B2E0E9470992F903F9076
:105A10004F90002329F0B0910001B062B0930001D3
:105A20004F923F922F92B1E06B2EB2E05B2EB5E029
:105A30004B2EB0E32B2EB0E03B2E0E9470992F909E
:105A40003F904F9000900001112705FC1395012312
:105A500009F443C0231411F4242C03C0022D0F5F5A
:105A6000202E4F923F922F92BCE84B2EBDE05B2E32
:105A7000B0E03B2E0E94C087BCE84B2EBDE05B2E01
:105A8000B9E03B2EB2E02B2E0E94D1A0FE01B6E57C
:105A9000B193B1E6B193BCE6B193B5E7B193B5E686
:105AA000B193B0E2B193BAE3B193B0E2B193B0E095
:105AB000B1938E012801B5E03B2EB2E02B2E0E945F
:105AC000D1A02F903F904F9021E11CE30CEC0A9560
:105AD000F1F71A95E1F72A95D1F7B0910001B0627C
